:1000000000800020BD010000651500001D150000E6
:100010001D1500001D1500001D1500001D15000018
:100020001D1500001D1500001D15000065150000C0
:10003000651500001D150000712C0000752C0000D6
:1000400065150000651500006515000065150000C8
:1000500065150000651500006515000065150000B8
:1000600065150000651500006515000065150000A8
:100070006515000065150000651500006515000098
:100080006515000065150000651500006515000088
:100090006515000065150000651500006515000078
:1000A0000D3C0000193C00006515000065150000BE
:1000B0006515000065150000651500006515000058
:1000C0006515000065150000651500006515000048
:1000D0006515000065150000651500006515000038
:1000E0006515000065150000651500006515000028
:1000F0006515000065150000651500006515000018
:100100006515000065150000651500006515000007
:1001100065150000651500006515000065150000F7
:1001200065150000651500006515000065150000E7
:1001300065150000651500006515000065150000D7
:1001400065150000651500006515000065150000C7
:1001500065150000651500006515000065150000B7
:1001600065150000911E0000651500006515000072
:100170006515000065150000651500006515000097
:100180006515000065150000651500006515000087
:100190006515000065150000651500006515000077
:1001A0006515000065150000651500006515000067
:1001B000651500006515000065150000564B4CF2F2
:1001C000205210B51A804DF628121A8000BF00BFC9
:1001D00001F0CCF9514B4FF010621A60504A9A600E
:1001E000504ADA60504A136813F4807304D14F49BF
:1001F0000B604FF4A85313604D4B1A78110703D5C9
:100200001A7842F008021A704A4B4B492A221A7097
:100210004A4A4B4B8B4204D252F8040F43F8040B6A
:10022000F8E7484B484900228B4202D243F8042B9E
:10023000FAE74649464A002352F8230041F82300D2
:1002400001336F2BF8D1434B434A802103F8011B44
:100250009342FBD1414B3D4A1A60414B8A221A70AE
:10026000A3F5805324225A70A0221A709A7992071B
:10027000FCD59A79D406FCD43A4A937903F00C035E
:10028000082B384BF9D105221A7143225A719A79F9
:100290009006FCD5334A9179324B4906FBD5324A58
:1002A0004FF0817111600521516020221A709A79F6
:1002B00002F00C020C2AFAD12C4B2D4A1A602D4B5D
:1002C0002D4A1A6000225A60072243F8042C2B4A58
:1002D000C3F80C2D62B601F0B1FC144B1B68DA07B1
:1002E00005D5274801F0AAFA264B274A1A60274B62
:1002F0001B785B0609D5234C234B22689A4204D114
:100300001F4801F09BFA0023236001F035F904F047
:1003100013FF01F027F8FEE70E200540308004406F
:10032000823F04000100002B10D0034014D0034092
:1003300002D0074000E007405C93FF1F305F0000E1
:100340002087FF1F5C93FF1F5895FF1F0082FF1F30
:100350000000000000E400E05FE400E008ED00E0E1
:1003600000500640004006404480044004800440A1
:10037000C010050014E000E03F190100000020203B
:10038000AB55AD621CE00340A5C3945A00F0074092
:10039000FFFFFFFFFFFFFFFFFFFFFFFFFFFFFFFF6D
:1003A000FFFFFFFFFFFFFFFFFFFFFFFFFFFFFFFF5D
:1003B000FFFFFFFFFFFFFFFFFFFFFFFFFFFFFFFF4D
:1003C000FFFFFFFFFFFFFFFFFFFFFFFFFFFFFFFF3D
:1003D000FFFFFFFFFFFFFFFFFFFFFFFFFFFFFFFF2D
:1003E000FFFFFFFFFFFFFFFFFFFFFFFFFFFFFFFF1D
:1003F000FFFFFFFFFFFFFFFFFFFFFFFFFFFFFFFF0D
:10040000FFFFFFFFFFFFFFFFFFFFFFFFDEF9FFFF23
:1004100010B5054C237833B9044B13B10448AFF33E
:1004200000800123237010BD5C93FF1F00000000BB
:100430002C5F0000084B10B51BB108490848AFF30A
:1004400000800848036803B910BD074B002BFBD0A0
:10045000BDE81040184700BF000000006093FF1F78
:100460002C5F00005C93FF1F00000000F0B55049B6
:10047000504A0C68504F514E83B040F2EE2513782D
:100480003BB13B78DB0704D50B6830681B1A0E2B99
:1004900006D80B6810781B1B68B3B3F5FA6FEED95A
:1004A00042F2107001F07AFB1A21454802F044FA3A
:1004B000444800F0DDFD1C21434802F03DFA41486C
:1004C00000F0D6FD4FF4087217214FF416633F4831
:1004D00000F05EFD582277213D4800F0A7FB68B987
:1004E0004E213C4802F028FA364800F0C1FD0A20AF
:1004F00001F054FBFBE7AB42C1D9D1E7052304224D
:100500008DE80C0001210222314800F04BFA3248FC
:1005100001F044FB2E4800F013FD08BB2F4D304C7A
:10052000286803F021FE022502460B460095254867
:1005300000F0FAFD234800F09BFD206803F014FE54
:10054000009502460B461F4800F0EEFD1D4800F0E6
:100550008FFD42F2107003B0BDE8F04001F01EBB09
:100560001B481E4D1E4C00F0C3FB2860184800F0CD
:10057000B7FB2060164800F0B3FB03F0F5FD022640
:1005800002460B4600960F4800F0CEFD0D4800F0E5
:100590006FFD0F4800F0ACFB03F0E6FD009602464D
:1005A0000B46084800F0C0FD064800F061FDB7E7C3
:1005B000E893FF1FCC94FF1FE494FF1F5095FF1F8B
:1005C000A05B0000E888FF1FBC5B00008093FF1F5A
:1005D0009893FF1FDC5B000020BF0200DC93FF1F2D
:1005E0008493FF1F2DE9F0414FF47A7084B001F03D
:1005F000D5FA524B524D1B680393524A524F0399FE
:100600002B68524811603B6000F09AFC002840F0D3
:100610008380396828684A4C04F076FB002857D15B
:100620004B4C23783BB12E68D7F8008030464146CA
:1006300004F088FB10B904B0BDE8F081454E4FF4DA
:10064000FA70C6F8008001F0A9FA404800F078FC82
:1006500088B13E4800F04CFB286003F085FD4FF068
:10066000020E02460B46CDF800E03B4800F05CFD70
:10067000394800F0FDFC3968286804F063FB002865
:10068000D9D0364D36480123B4212B7000F0BCFC84
:100690000227306803F068FD009702460B462E489B
:1006A00000F042FD2C4800F0E3FC21782A4800F0DD
:1006B00033FD294800F0DCFC2978274800F02CFDA8
:1006C000254800F0D5FC40F6C41001F067FAE0E7D9
:1006D000FA2001F063FA1D4800F032FC78B11B48A3
:1006E00000F006FB206003F03FFD022402460B46AB
:1006F0000094194800F018FD174800F0B9FC2E6866
:10070000D7F800803046414604F0FEFA002887D032
:100710000F4C0123237089E70C4800F0E9FA2860A8
:1007200003F022FD022402460B4600940A4800F022
:10073000FBFC094800F09CFC6BE700BFE893FF1F3F
:100740007893FF1FD893FF1F8893FF1F9893FF1F75
:100750009493FF1F9093FF1FE888FF1F8C93FF1F48
:100760008093FF1F10B584B000F0B6FD0D480E4C0D
:1007700000F00AFC0D4800F007FC0F230093204610
:1007800010231122122100F07DF82046084A094961
:1007900002F04AFB084A094B12680392039A1A6056
:1007A00004B010BD7C93FF1F9893FF1F8093FF1F21
:1007B000FC87FF1F21090000E893FF1FD893FF1F4C
:1007C000704700BF704700BF704700BF10B51021D1
:1007D000044600F0EBFE204610BD00BF10B510210E
:1007E000044600F0E3FE204610BD00BF70B528228D
:1007F0000C4606460846002104F08EFF0B220A49EB
:10080000204604F0EDFF00230125E372B668074897
:100810000749084AE5600D25266163626561E0616C
:10082000A161226270BD00BF485C0000000020C2D0
:100830000000AA420AD7233C70B528220C4606467F
:100840000846002104F068FF0B220A49204604F004
:10085000C7FF00230125E372B66807480749084A25
:10086000E5600625266163626561E061A16122623F
:1008700070BD00BF485C00000000964300808944C2
:10088000A69B443C2DE9F047044690F8386090F868
:100890003C00002506F0800600F0C00084B065F33F
:1008A000C71665F3871084F8386084F83C006560EB
:1008B000A560E5602561A5612C2017469DF9309063
:1008C00088469A4600F070FE009701270297114F64
:1008D000039553464A4641460646019702F0BEFB41
:1008E000A660102000F060FE03460B49C4604FF480
:1008F0008C72E06019609A60102000F055FE074A83
:1009000085600346C460206120461A6004B0BDE8DB
:10091000F08700BF40420F00345C0000585C0000CC
:1009200038B58568044635B1284602F007FC2846EC
:100930002C2100F03BFE606810B1102100F036FE63
:10094000E06848B103685B689847206910B10368A4
:100950005B689847204638BD20690028F7D1F9E741
:1009600010B5436884B08DF80D206BB104AA002443
:1009700002F8041D18461146019400940123022236
:1009800002F0B2FA04B010BD04AC01F07F0204F82A
:10099000042D806800932146022202F059FD04B024
:1009A00010BD00BFF8B585699DF818609DF81C70F2
:1009B00005B9F8BD90F838508E4606F0070690F855
:1009C0003C1007F0070766F3C5056EF3871167F360
:1009D000020562F30201C5F3C012044663F3C501C8
:1009E00042EA471280F8385042EA860280F83C100A
:1009F000F521FFF7B5FF94F83C20C2F3C20302F0E3
:100A000007019B0043EA4113204643EA9212F42176
:100A1000BDE8F840FFF7A4BF30B5446885B004AB2B
:100A20006CB103F8041D01220025204619468DE80B
:100A3000240002F0EBFA9DF80C0005B030BD61F027
:100A40007F0103F8041D0122FF24806819468DE808
:100A5000140002F031FD9DF80C0005B030BD00BF60
:100A600030B5426885B004AB92B103F8041D00258F
:100A70000224104619468DE83000012202F0C6FA21
:100A80009DF80C009DF80D3043EA002005B030BD04
:100A900061F07F0103F8041DFF24022280681946DB
:100AA0008DE81400012202F007FDE9E730B5426845
:100AB00085B004ABB2B103F8041D00250324104631
:100AC00019468DE83000012202F0A0FA9DF80D30A1
:100AD0009DF80C209DF80E001B0243EA02431843C8
:100AE00005B030BD61F07F0103F8041DFF2403222F
:100AF000806819468DE81400012202F0DDFCE5E76C
:100B000038B5FA210546FFF7D1FF2C8CB5F9241032
:100B1000B5F92230C4EB202202FB02F2640012136A
:100B200001FB02F2C4EBE010921303FB00F002EBB6
:100B3000E02303EB83008030EB61001203F0F2FE50
:100B4000014903F0F7FF38BD0000C84270B5242505
:100B50000C4682B006462A460846002104F0DCFD19
:100B60000B4BF0681B6801938369B668019A256096
:100B70000D216660A160226123B9064860610120F1
:100B800002B070BDFFF7BCFF6061012002B070BD14
:100B9000E893FF1F0000C07F10B588210446FFF7CF
:100BA0005FFF40BA20848A212046FFF759FF40BAF0
:100BB00060848C212046FFF753FF40BAA0848E2129
:100BC0002046FFF74DFF40BAE08490212046FFF712
:100BD00047FF40BA208592212046FFF741FF40BAE7
:100BE000608594212046FFF73BFF40BAA0859621FF
:100BF0002046FFF735FF40BAE08598212046FFF7F1
:100C00002FFF40BA20869A212046FFF729FF40BADD
:100C100060869C212046FFF723FF40BAA0869E21D4
:100C20002046FFF71DFF40BAE08610BDF8B5044628
:100C30008068154658B102F089FA30B1D0212046BB
:100C4000FFF7EAFEA842A06117D00020F8BD606857
:100C50000E4610B1102100F0A9FC102000F0A4FCF9
:100C600031460746226802F009F9676038460121DB
:100C700002F02AF90028E1D1E7E72046FFF78CFFD0
:100C8000A36923B9642000F089FF0120F8BD94F81E
:100C90003C3094F83820052163F03F0361F30203F0
:100CA00002F0C70261F3C5036FF3020284F83C301F
:100CB00084F838202046C2F3C012F521FFF750FE19
:100CC00094F83C20C2F3C20302F007019B0043EA00
:100CD0004113204643EA9212F421FFF741FED1E787
:100CE00083690BB901487047FFF70ABF0000C07F56
:100CF0008369002B00F0FD802DE9F04F044685B09C
:100D0000FFF7FEFEF7212046FFF7D0FEE669B4F9B3
:100D10002A20B4F928800390F717B6F5FA3647F180
:100D2000FF37A6FB06AB06FB07F30BEB430B02FBFF
:100D30000BFED3170AFB03EEA2FB0A237344150A2A
:100D400045EA03651B124FEAE87908FB07FC0095AA
:100D50000193A8FB060106FB09CCDDE900236144F1
:100D60004FEA00384FEA013912EB080249EA1059FC
:100D700043EB0903101CE28C43F50041A0FB028900
:100D800002FB01994FEA69024FEAE97352EA030153
:100D900000F0AB80B4F92E8003984FEAE87908FBA5
:100DA00007F106FB0911A8FB06670F440511B4F90A
:100DB00030004FEA4749C11749EAD6394FEA464859
:100DC00000FB0BF60AFB0166A0FB0AABB4F92C0092
:100DD000B344C100002601910096DDE90067C5F526
:100DE00080151AEB080A4FEAE5714BEB090BE8078F
:100DF00016EB0A064FEAC17147EB0B0741EA5501B2
:100E0000801B61EB070110EB000841EB010918EBB7
:100E1000000649EB01074FEA87194FEA861818EBDD
:100E2000060849EA966949EB07094FEA89054FEA3E
:100E3000880645EA987516EB000845EB01094FEA6C
:100E400088064FEA8905801945EA9875694103F0DB
:100E5000A3FFB4F936204D134FEA503E4EEAC14E7F
:100E600002FB05F6D3170EFB0366A2FB0E233344E9
:100E7000B4F93460B4F9324002FB05F50EFB0355BA
:100E8000F717A2FB0E2306FB01FE2B444FEA526824
:100E900000FB07E5A6FB00672F4448EAC3184FEAAA
:100EA000D64A10EB08004FEA63694AEA473A41EB39
:100EB00009014FEAE74B1AEB000A4BEB010BE51770
:100EC0004FEA1A2242EA0B62290120014FEA2B2342
:100ED000801841EA1471594103F03AFD4FF06E5108
:100EE00003F074FD05B0BDE8F08F002005B0BDE84B
:100EF000F08F0148704700BF0000C07F70B5242606
:100F00000C4682B0054632460846002104F004FC37
:100F1000094BA9681B6801930622019BE868616080
:100F2000A26023612660FFF7E3FE044903F002FE9E
:100F30006061012002B070BDE893FF1F0000C8424D
:100F400090F83C3003F0C002402A01D000207047E6
:100F5000C3F3C20203F00701920042EA411210B546
:100F600042EA9312F4210446FFF7FAFC01E000F094
:100F700015FEF3212046FFF74FFD10F0080F4FF04C
:100F80000100F4D1012010BDFF22027042707047B1
:100F9000212930D8F8B5CD1E1D2D2AD8174CEC408C
:100FA00004F0010484F001061CB30446C8B21D46D7
:100FB00017462070124900F063FD3A112B11FF20F3
:100FC000A270E37031466070207800F0DBFD20787D
:100FD000012100F0DDFD23780A495C11012051F860
:100FE000242003F01F0300FA03F3134341F82430D5
:100FF000F8BD0020F8BD0020704700BFCF005E2084
:1010000000004842E093FF1F0378212B27D80029D6
:1010100070B5044624DBB42925DDB4200146A3784D
:10102000E2786070D01A4BF20B6202FB00F21B03F5
:1010300001FB02F103EBE12140F61B5505FB01F139
:101040008D0D72B60C2000F00BFD29460646207867
:1010500000F008FC304600F003FD62B670BD70473A
:1010600000200146DBE7C8B2D9E700BF0020704787
:1010700030B5044683B002252A4601A8054900F090
:1010800079F923682A4601A95B682046984703B08E
:1010900030BD00BF6C5C0000F0B507468BB0002A85
:1010A00033D0012A08BF0A2251B3212400E0F4B250
:1010B000B1FBF2F502FB1511C8B2092900F13001AC
:1010C00098BFC8B20AA988BF3730214488BFC0B2D0
:1010D00001F8240C661E2946002DE8D133B1013CED
:1010E000E4B20AAB23442D2203F8242C3B6801AA66
:1010F00011195B683846C4F1220298470BB0F0BD65
:1011000030228DF825202124E8E70368C9B21B6846
:1011100098470BB0F0BD00BF0029BABF49422D234C
:1011200000230A22FFF7B8BF2DE9F04385B08046BF
:101130001946104616461F469DF8305003F002FB34
:10114000002840F0B18027F00044304621464FF09F
:10115000FF32594B03F0F6FA98B9304621464FF06A
:10116000FF32554B03F0D0FA58B9D8F80030534944
:101170005B684046032298478146484605B0BDE873
:10118000F083304639464FF060424D4B03F0D0FAC1
:10119000002870D1304639464FF06042494B03F089
:1011A000A9FA002867D1304639460022002303F00F
:1011B000A1FA002863D18146002D65D0424B00245E
:1011C0000022104619463AA3D3E9002303F020F881
:1011D00001340B46E1B28D420246F2D83046394620
:1011E00002F064FE0F46064603F0C2FA044602F01F
:1011F00099FF02460B463046394602F055FE4B46F3
:1012000006460F460A2221464046FFF745FF0F2DAE
:1012100028BF0F2501352E238146EDB28DF8003011
:1012200001240022294B3046394602F0F1FF0F46D7
:10123000064603F09DFA04AB2344C0B200F130022D
:1012400003F8102C02F07EFF02460B46304639466A
:1012500002F02AFE0134E4B2AC4206460F46E0D169
:10126000D8F8003022465B684046694698474846B1
:1012700005B0BDE8F083D8F80030154978E707F1EC
:1012800000474FF0010997E700220F4B30463946DF
:1012900002F00CFE03F06CFA4B4601460A2240466F
:1012A000FFF7FAFE814668E7D8F8003009495FE7A2
:1012B000000000A09999B93FFFFFEF7F785C000024
:1012C000FFFFEF41FFFFEFC10000E03F00002440BF
:1012D000745C0000705C0000F0B585B01022194904
:1012E000684600F047F8184A127891071DD517494B
:1012F000174D0A7812F0700218BF0A701549164A85
:101300000346802715480F700026332403212E70D2
:101310000470117072B60D4C43F0010320469847DB
:1013200062B6237813F0700309D10D4B064901E032
:10133000013B02D00A78D207FAD505B0F0BD237080
:1013400005B0F0BD7C5C00000100024000000240DE
:1013500004000240070002400A0002400B00024065
:10136000410D030008B5FFF781F8FFF73BF901F0E5
:10137000E7FBFAE701B441EA000313F003036FD17E
:10138000403A41D351F8043B40F8043B51F8043B48
:1013900040F8043B51F8043B40F8043B51F8043B4F
:1013A00040F8043B51F8043B40F8043B51F8043B3F
:1013B00040F8043B51F8043B40F8043B51F8043B2F
:1013C00040F8043B51F8043B40F8043B51F8043B1F
:1013D00040F8043B51F8043B40F8043B51F8043B0F
:1013E00040F8043B51F8043B40F8043B51F8043BFF
:1013F00040F8043B51F8043B40F8043B51F8043BEF
:1014000040F8043B403ABDD2303211D351F8043B8E
:1014100040F8043B51F8043B40F8043B51F8043BCE
:1014200040F8043B51F8043B40F8043B103AEDD23D
:101430000C3205D351F8043B40F8043B043AF9D28E
:1014400004320AD0D2071CBF11F8013B00F8013B5F
:1014500003D30B7803704B78437001BC704700BF17
:101460000C2A4AD310F0030311D0C3F10403D21A9B
:10147000DB071CBF11F8013B00F8013B07D311F853
:10148000013B00F8013B11F8013B00F8013B11F072
:1014900003033FF475AF30B4043AC91AC3F1040C26
:1014A00051F8044B022B19D0032B0BD0240A51F80E
:1014B000043B1D0644EA050440F8044B1C46043A6C
:1014C000F4D216E0240E51F8043B1D0244EA050450
:1014D00040F8044B1C46043AF4D20AE0240C51F8BC
:1014E000043B1D0444EA050440F8044B1C46043A3E
:1014F000F4D20432B1EB0C0130BC043AA0D3013A6F
:1015000011F8013B00F8013BF9D20B7803704B78DE
:1015100043708B78837001BC704700BF08B5104CD6
:1015200008E0236859050DD423681A050FD42368F1
:10153000DB0411D423685803F3D500F0A9FC236819
:101540005905F1D500F00EF823681A05EFD500F023
:1015500009F82368DB04EDD500F004F8EAE700BFE2
:101560003480044008B5FFF7D9FF00BF014B1022BB
:101570001A80704700200540704700BF094908B530
:101580000B6830B16A461844A2F58052904202D2EC
:101590000860184608BD03F0C9FD0C2303604FF036
:1015A000FF3008BD0088FF1F03F0EEBD03F0F4BD5F
:1015B000F0B44D1E2E46002400E00134B0FBF2F3DF
:1015C00002FB1300092800F130078ABF3730F8B258
:1015D000C0B206F8010F1846002BEED10A1953705D
:1015E0004CB1107815F8016F28700133E01A83426E
:1015F00002F80169F5DB0846F0BC7047704700BF90
:1016000010B40F4B53F8302092F880422CB10123D4
:1016100069B182F8803010BC704703EBC0035B688F
:101620001A6841B922F002021A6010BC704782F8B1
:10163000003110BC704742F003021A6010BC7047C2
:101640008C5C00001C4A02EBC00301295B6811D0CE
:1016500004291BD052F83000002280F8802229B1E2
:10166000022920D0032922D01A6070474FF48072DB
:101670001A60704752F830004FF4A27280F880125E
:101680001A601A6822F020021A60704752F830106F
:101690004FF4A272012081F880021A601A6842F0A9
:1016A00020021A60704740F203121A6070474FF42C
:1016B00081721A60704700BF8C5C0000212848D8F6
:1016C000F8B5042A44D8DFE802F0484B4E03450041
:1016D0004FF410262B4B03EBC0030D465C682168CA
:1016E00011F4E06148D0284B284A2949C3F89C21CD
:1016F00004F140422748C3F8A411A2F59221264FD5
:10170000C3F8A0017C292548C3F8A871C3F8AC012F
:101710002CD9A2F594237C2B2AD9A2F596237C2BD5
:1017200028D9A2F598237C2B29D9A2F59A227C2AC4
:1017300027D81B4872B6236823F4702343F08072C5
:10174000C4F384011643236040F82150266062B63A
:10175000F8BD70474FF43026BCE74FF40026B9E7D8
:101760004FF44026B6E74FF42026B3E70D48E1E7F3
:101770000D48DFE70D48DDE7FFF764FFB3E70C48EE
:10178000D8E7F8BD8C5C00000082FF1FD187FF1FE7
:101790007987FF1FA587FF1F4D87FF1F2187FF1F29
:1017A000DC88FF1F0488FF1F3C88FF1F8C88FF1FF9
:1017B000BC88FF1F1A4B03EBC00010B4426802F153
:1017C0004043A3F592217C2923D9A3F594217C29B8
:1017D0000DD9A3F596217C291FD9A3F598217C2941
:1017E00019D9A3F59A237C2B11D80E4C00E00E4C8E
:1017F00072B613680D4823F08773C2F3840123F493
:10180000803343F08073136044F8210062B610BC4B
:101810007047074CECE7074CEAE7074CE8E700BFE6
:101820008C5C0000DC88FF1F3C88FF1FFD1500005A
:101830000488FF1FBC88FF1F8C88FF1F30B4054B36
:10184000054D064C002210211A602A6020601960A4
:1018500030BC704714D0034004D0034000D0034094
:10186000704700BF282838B52ED0002904464FDD28
:101870005F4B1B78012505FA03F28A4202D8212822
:1018800037D938BD0338C2B2012A3AD9202C4AD000
:10189000192C48D0574A126802FB011222FA03F3AE
:1018A0001D2800F29B80DFE800F0928B847D9999DF
:1018B000766F99999999999999999968615A5399D3
:1018C0004C99999999999945494B1B780B2B08D9B3
:1018D0000C2B1CBF0C3B19410846BDE8384001F0F9
:1018E00041BAC3F10C0399400846BDE8384001F005
:1018F00039BA2946FFF784FE2946BDE83840FFF78C
:10190000A1BE3D4A126802FB011222FA03F3C7E7A7
:101910002128B6D80021FFF773FE20460121BDE83B
:101920003840FFF78FBE354A126802FB011222FAD7
:1019300003F3B5E73249334A0B604FF45173136038
:1019400038BD3149314A0B604FF45173136038BDD3
:101950002F49304A0B6040F24443136038BD2E4992
:101960002E4A0B6040F24443136038BD2C492D4A87
:101970000B6040F24443136038BD2B492B4A0B6087
:1019800040F24443136038BD29492A4A0B6040F2B3
:101990004443136038BD2849284A0B6040F2444351
:1019A000136038BD2649274A0B6040F24443136058
:1019B00038BD2549254A0B6040F24443136038BDC9
:1019C0002349244A0B604FF45173136038BD2249F8
:1019D000224A0B604FF45173136038BD212C3FF63F
:1019E00050AF7F29D4BF00210121204693E700BFDB
:1019F000E488FF1F088003400890034008800B40E4
:101A000010800B4048A0044018800B404CA00440BC
:101A10001880034008B004401080034004B0044024
:101A20004080034018C004403880034014C0044084
:101A30002880034010B00440208003400CB00440D4
:101A40003080034010C00440488003401CC0044064
:101A500018900340349004401090034030900440AC
:101A600038B1102828BF1020044AC3B21078137070
:101A70007047024A0123107813707047E488FF1FF3
:101A80002DE9F8430E4680463249334D304603F087
:101A90003BF947F6122300281ABF1D464FF00209F2
:101AA0004FF00109002425FA04F002F037FF4FF04F
:101AB0005E51074602F08AFF0146304603F038F9CE
:101AC00030B90134072CEED1E80902F027FF0746B0
:101AD0003146384603F02EF84FF07C5102F06CFE90
:101AE00003F03AF94FF6FF729042A8F1030328BFC2
:101AF0001046012B29D9B8F1170F17D8174B23FA25
:101B000008F303F0010383F0010223B9B8F1190FC0
:101B10000FD0BDE8F883124B124D13491A6044EA06
:101B2000C9042A6008601C60BDE8F883B8F1200F82
:101B3000ECD10E4B0E4D0F49002244EAC9041A6045
:101B40002A6008601C60BDE8F8830B4B0B4D0C4904
:101B5000F2E700BF40548940005125026006F000C2
:101B600000800340048003400880034000800B4055
:101B700004800B4008800B40009003400490034019
:101B800008900340212801D8FFF73ABD704700BFF5
:101B9000212801D8FFF756BD704700BF2DE9F84353
:101BA000054672B6214F224B224A1B683C681268D8
:101BB00062B6520102D5322B88BF0134A5B3C3F5FA
:101BC0008C331D4EDFF86890DFF8688003F23F1316
:101BD0004FF47A72A6FB031302FB04F404EB131414
:101BE00072B6D9F800103A68D8F800E062B6C1F5CC
:101BF0008C3303F23F13A6FB03031EF0806FC4EB8C
:101C000013134FF47A7002D0322988BF013200FBDF
:101C10000233B3F57A7F04D3013D05D004F57A741D
:101C2000DEE700F08DFFDBE7BDE8F883E893FF1FF8
:101C300018E000E004ED00E0398EE338F8B52E4BF3
:101C40002E49DFF8D4E0DFF8D4C02D4E2D4D2E4CB8
:101C50002E4A2F4F4FF4000018604FF0807018602C
:101C60004FF0007018604FF0806018604FF0006017
:101C7000186000200860282348F6FF71CCF8001097
:101C8000CEF80030336013602B6023603B60B3629A
:101C90009362092245F8242CC4F8D80F05F57F6516
:101CA000C7F8D41F07F5FF2707F5FA67C6F8F83F0E
:101CB0002B6006F5FF26C4F8D42F05F5FD2504F5A5
:101CC000FF24386006F2F4761248316005F5FF65AE
:101CD00004F5FD642B602360026000F0D3FFFFF782
:101CE000BFFD1420FFF75AFF00F00CFD4FF48C707D
:101CF000BDE8F840FFF752BF08E100E00480034070
:101D000014800340248003402C8003401C80034047
:101D10003480034000800B400C8003400880034067
:101D2000431E032B14D872B60A4951F8230068B138
:101D300070B4094C058834F81320466841F82360D4
:101D4000521B24F8132062B670BC704762B670470D
:101D5000002070474494FF1F4095FF1F013803285F
:101D60000BD872B6074B53F8203043B100205B68A4
:101D70000130002BFBD162B6704700207047184637
:101D8000F9E700BF9894FF1FF0B472B61A491B4ED2
:101D9000012311F8014B194F9A00240742F0010565
:101DA00005D556F8324064B156F83520BAB1013342
:101DB000052BEED162B6124B00221A70F0BC00F077
:101DC0002FBD0F4C0F4D217807EB4313083001391D
:101DD0005860217047F8325062B6F0BC7047084A2C
:101DE0000949137807EBC5040830013B60601370A4
:101DF00047F8351062B6F0E7C45D00000080FF1FB1
:101E0000C194FF1F88004000C8004000431E032B00
:101E10001DD81B4A400140F0100030B4104472B687
:101E2000184CE25C032A1BD8DFE802F002121517F7
:101E300003220D88E25410F0080F14BFC823882332
:101E400043EA054308314160036062B630BC704725
:101E500008300222EDE70522EBE708300422E8E72C
:101E6000094A52F8230038B1084A52F82300416069
:101E700042F8231062B6E9E742F82310034AF7E775
:101E80000080FF1FD094FF1F9894FF1FA894FF1F8E
:101E90002DE9F04FDFF814B3DFF814A387B044E066
:101EA000AD4F4FEA930807EBC809013ED9F804206B
:101EB00003F00803F6B2A2F1080003F0FF04002BC0
:101EC00040F0038157F838301B0C99B222F8081CF7
:101ED000002B00F0F180A14B22F8064C42F8044C94
:101EE00053F82620002A00F06C819D4D55F82630CD
:101EF00058609C4C45F8260034F81630194424F8F4
:101F0000161000F06DFC002800F05481964A974BA3
:101F100019F0080F00F1080018BF1346C9F80400B3
:101F200047F8383008238BF800309BF80040E4B2C3
:101F300060071BD58E4B1B78ABB18E490A7802F037
:101F4000FF032AB1013BDBB20B70002B00F0B5831D
:101F500089490A7802F0FF032AB1013BDBB20B701A
:101F6000002B00F0F68004238BF8003004F0080307
:101F700003F0FF02002B00F0D5809AF80030DBB2AE
:101F80001E098DD19C08744F57F8342007EBC4010B
:101F9000C2F38302013A49680C2A7ED8DFE802F0D6
:101FA00081817D7D7D7D7D7D427D7D7D0700086811
:101FB000724B734D01936C4B4A68724E47F8343044
:101FC00081B240F281646D4B6A602860002201207A
:101FD000A1423A611A60BA61307000F2F680B1F540
:101FE000D06F80F0E882B1F5817F00F0D38200F2FB
:101FF000D881802900F04D81822940F09282A98801
:10200000614B01F07F01042900F28C825F4C890052
:102010000B44227062701A78930740F13883207065
:1020200002203AE1554B01931A6862B3584B594963
:10203000544E18880C7896F800E04028054684F045
:10204000010C28BF402544F00204BEF1000F81F8C6
:1020500000C0A0EB050007EBC40C0CBF8821C82111
:1020600080B28EF0010E41EA0541CCF804201880C0
:1020700086F800E02A4447F8341010B9402D18BF04
:102080000022019B1A603E4B1A88B2F5A06F04D162
:1020900000219A785970404B1A70404A01231370FE
:1020A00040E7374A158842F22100854200F052810C
:1020B0002D4A47F83420F0E72B4A2C4B19F0080F33
:1020C00018BF134647F838302CE700F0A9FB344A14
:1020D000344952F82630002B00F02D8158688C5D71
:1020E00042F8260003F10802C9F80420032C05D8A1
:1020F000DFE804F0120F150204228A551A8819F03D
:10210000080F0CBF8823C82343EA024347F838303E
:1021100008E702228A55F1E703228A55EEE70522F5
:102120008A55EBE7E00700F17881210600F1A281F2
:10213000A20706D51C4A1D4913780220DBB2137092
:102140000870E30602D5194B10221A7007B0BDE8DB
:10215000F08F00F0D1FC06E70080FF1F4494FF1FC2
:10216000F093FF1F4095FF1FC8004000880040000B
:10217000CC94FF1F5594FF1FD494FF1FEC93FF1FB7
:10218000B894FF1F5494FF1FC0200740C494FF1F42
:102190000094FF1FC094FF1F982007409420074021
:1021A0009894FF1FD094FF1F88200740802007408D
:1021B00090200740B74A47F838001378013313706E
:1021C000B0E643F82600B44D93E642F22104A14262
:1021D00000F0AD8000F20E81B1F5086F00F054817F
:1021E000B1F5106F40F09D81AC4AA9781170AC4DEB
:1021F000042402E00134142C0CD057F834301906B2
:10220000F8D505EBC40301345868083800F008FB22
:10221000142CF2D1A349A44BA44A0291A449A54C81
:102220009D4D039405964FF0000988461C461646BE
:102230000495206828B1456800F0F2FA2846002D80
:10224000F9D100232360049B30681A46002342F82A
:10225000293028B1456800F0E3FA2846002DF9D16D
:1022600000223260029A98F800301146002241F8AC
:10227000042B039A0291023B4FF0000122F819103F
:10228000032B00F2B481DFE813F0E201AE01E201BA
:10229000AE01894C022022706270EA88824280F08E
:1022A0000D8286490D78402A45F0020E944607EBD0
:1022B000CE0028BF4FF0400C04EB0C0344600293A7
:1022C000CCEB02004FEA0C484FF001090022C82471
:1022D00044EA080385F0010447F83E3032700C7080
:1022E000DFF8BCE1764BDFF8D481002840F0208194
:1022F000BCF1400F1BD144F0020407EBC403029F62
:10230000DFF89CE15F60002A40F02781020442F080
:10231000880286F800900D7007444EF834203B4642
:10232000402804D10020674A019910800B60664A5A
:1023300001231370B1E68B5D032B00F2248101A20F
:1023400052F823F0251F0000251F0000692400001B
:102350006F240000928862B95C4ACD1D11F8013BE0
:1023600002F8013F8D42F9D1594A1268862A00F0DD
:10237000C9805249524E0878327840F0020580F008
:102380000100087007EBC501002A4FF0000048600B
:1023900082F001020CBF8821C82147F83510327045
:1023A00086E640F20232914240F0B080A98801F006
:1023B0007F01042900F2B5806A88002A40F0B180CC
:1023C000444C89000C448146217841F0020121707F
:1023D0000020029080468446044638490D7845F036
:1023E000020E07EBCE03B9F1000F5C600CBF88242E
:1023F000C8246DE742F22124A14240F08E80A988D2
:10240000002940F04281344B344A354C1B68AD788A
:10241000136081460A462570DAE72B49204B314884
:10242000264EDFF8B0C0304DDFF8D4E02F4F022445
:102430000C702F4C18605C6098602E48D8601A6150
:102440009A610D2332702C4C8CF800302B4EFF23F8
:102450002B7001209F258EF800303A703370257064
:10246000087007B0BDE8F08F00238B555AE50123B3
:102470008B5557E51749224B80220D2008701A70A2
:10248000A2077FF55EAE55E6044A0B4C1278227027
:1024900003E700BFC194FF1FF093FF1FCC94FF1F01
:1024A0000080FF1FA894FF1F4494FF1F9894FF1FF4
:1024B000D094FF1F4095FF1FC494FF1FC094FF1FBF
:1024C0005494FF1F0094FF1F942007404795FF1F5F
:1024D0004895FF1FC0200740E893FF1F5095FF1F3E
:1024E000E494FF1F880040008820074098200740A0
:1024F0000494FF1F5894FF1F842007408C2007403E
:1025000080200740754A0F21117032E7B1F5A06FA6
:1025100007D100224FF001095AE742F221329142DD
:10252000F7D06F4B0F221A706E4A01231370B4E577
:1025300040287FF6E0AE44F002040EEBC401029E98
:102540004E60AAB183F80090674A88F8005033467D
:10255000403840334EF83420E5E6029B86F8009080
:10256000020442F0C8020D7003444EF83420D7E64E
:1025700083F80090029B5D4A88F800504038403351
:102580004EF83420CFE619F0080F0CBF02230323C6
:102590008B55C7E4A98801F07F010429C1D86A8856
:1025A000002ABED14E4C89000C448146217821F08E
:1025B000020121700CE74E4A5468002CB1D06888A3
:1025C000B5F804E003E00C325468002CA9D013885D
:1025D0008342F8D153887345F5D1000A03280CBF14
:1025E0002078108959E64FF0010388F8003009F18E
:1025F0000109B9F1040F04F1040406F1040608F11D
:1026000001087FF416AE3B4B059E3B4DDFF8F08092
:10261000002018704FF0010918F8013B05F8043B41
:102620001A0719D44FEA890444F0020244F0030463
:10263000002347F8323047F83430304B9D4209F1DF
:102640000109E9D196F8009089F00102C0E64FF047
:10265000000388F80030CAE700F0C2F818B307EBAF
:1026600049134FEA890408305860204B47F834304A
:1026700000F0B6F868B144F0010307EBC30208307C
:102680005060194A47F83320CEE78146A0E6022081
:1026900003E6184B44F001021B7847F83200154A54
:1026A00001331370C0E7134B124A1B784FEA8904B9
:1026B000013347F834001370DAE700BE402884463F
:1026C00028BF4FF0400C04EB0C03CCEB00004FEAAA
:1026D0000C48029300224FF001097EE65594FF1F3B
:1026E000C020074094200740C800400088004000F8
:1026F000C85D0000C194FF1FC4200740D4200740DC
:10270000C45D00002DE9F04100F04CFB00231F499F
:102710001A4601EBC30041F833200133142B426009
:102720004FF000041948F4D1194A1A4F13681A4996
:102730001A4D1B4EDFF874C0DFF874E0DFF87480C8
:1027400043F480231360C0F307233B70C0F30743B7
:102750000B70000EFF2302F528322870D4328CF85B
:102760000030104D8EF800300F483370012388F888
:102770000030702681F850404FF40074102107F8A3
:10278000183C2E7004601170BDE8F0810080FF1FBE
:10279000348004409C200740B0200740B42007400C
:1027A0001020074049E400E008E100E080200740F5
:1027B000882007409420074000F0A2B800F07AB8C3
:1027C00000F054B800F08EB800F06AB900F044B9D7
:1027D0000846114600F0B0B8084600F031B900BF15
:1027E00072B60D480268B2FA82F30B2B10DC4FF080
:1027F0000041D94022EA0102026062B6074803EBB9
:10280000C303DB00C2180021C1501046516070475D
:1028100062B60020704700BFF888FF1FBC83FF1F0F
:102820000D4B0E4AC31AA2FB03231B090B2B0CD81A
:102830000B4A127852B972B60A484FF0004102684A
:1028400021FA03F31A43026062B67047064A12780F
:10285000002AF0D0FFF798BABC83FF1F398EE33807
:10286000C194FF1FF888FF1FCC94FF1F38B50F4D90
:10287000286878B143880288C118013393420C7AE2
:1028800002D24380204638BDFFF7CAFF002320460E
:102890002B6038BD064B1B782BB10320FFF740FAA5
:1028A00028600028E6D14FF0FF3038BDE094FF1FCC
:1028B000CC94FF1F10B5094C206818B14388184408
:1028C000007A10BD064B1B782BB10320FFF728FAC6
:1028D00020600028F2D14FF0FF3010BDE094FF1FC0
:1028E000CC94FF1F044B054A1B6890881BB11A88C3
:1028F0005B88D31A18447047E094FF1F4095FF1F70
:102900000B4B1B789BB110B50A4C206848B1FFF700
:1029100087FF002303202360FFF702FA30B1FFF79F
:102920007FFF0320FFF7FCF90028F8D110BD7047A6
:10293000CC94FF1FE094FF1F2DE9F04FDFF8F890D3
:1029400083B0012289F80020019169B3DFF8EC809F
:10295000364F019E8346D8F80000B0B3344D44880A
:10296000C4F14001B14228BF314604EB010E002200
:102970001FFA8EFE2A70761AA0F802E000F1080213
:1029800051B1013C224459441BF8014B02F8014F5C
:102990008B45F9D1B0F802E0BEF13F0F0BD8254AC4
:1029A00005211170002ED6D10198002389F800303E
:1029B00003B0BDE8F08F4022028001460420FFF7FB
:1029C00025FA0022C8F80020E9E73A782AB3184D22
:1029D00048F601444FF0010A07E0013C16D02A787E
:1029E000A2B900F0ADF83A78BAB10420FFF7B6F911
:1029F0000728F2D889F800A0FFF7F2FEC8F8000017
:102A00000028ACD10C4B013C1870E8D101234FF0E9
:102A1000FF302B7003B0BDE8F08F00234FF0FF3084
:102A200089F8003003B0BDE8F08F00BFCC94FF1FE1
:102A3000DC94FF1FD494FF1FD594FF1FD894FF1F71
:102A400000B583B002AB012103F8010D1846FFF772
:102A500073FF03B05DF804FB38B50E4D0E4C2868CB
:102A60000123237028B1408800232370C0F1400067
:102A700038BD0A4B1B7813B90020207038BD0420E4
:102A8000FFF76CF90728F7D8FFF7AAFE286000289F
:102A9000E9D1F1E7D894FF1FD594FF1FCC94FF1F15
:102AA000F8B5114B1B788BB1104E114D34680127CE
:102AB0002F7064B10F4A6388002717702146238066
:102AC0000420FFF7A3F9376000232B70F8BDFFF750
:102AD00087FE084B28B1014604201C70FFF796F9C9
:102AE000F2E71F70F0E700BFCC94FF1FD894FF1FE0
:102AF000D594FF1FD494FF1F38B50E4B1B7873B9C4
:102B00000D4C216861B103F0FF054B880B80042058
:102B1000FFF77CF9256038BD084B01221A7038BDDB
:102B2000FFF75EFE0028F7D00146BDE838400420DC
:102B3000FFF76CB9D594FF1FD894FF1FD494FF1FE3
:102B40002DE9F843314E337893B1314F3A787AB961
:102B50000122D9073A7036D49A0719D400225B07AC
:102B60003A7005D52B4B1A6812B1EFF305820AB102
:102B7000BDE8F883EFF3108172B6186818B1264CDF
:102B80002278002A2ED00029F2D162B6BDE8F8835F
:102B9000DFF8908098F80020002ADFD0DFF88890D6
:102BA000002405E0013498F80030E4B2A34212D9C1
:102BB00059F824502B6828461B6998470028F1D003
:102BC0002B699847EEE7FFF78DFEC8B9134B1B78CA
:102BD0001BB93378C0E73378C0E7337803F0FE03DE
:102BE0003370B9E745691D60012323705DB1AA61A7
:102BF00001B962B600254577836898472570B7E725
:102C000000F0CEF8E2E7064B1D60F1E7FC88FF1FFD
:102C1000E594FF1FF494FF1FF894FF1FFF88FF1F28
:102C2000F094FF1F0895FF1FFC94FF1F70B5EFF392
:102C3000108272B60C4C206880B10C4E002543699E
:102C4000236073B19D6102B962B645778368984786
:102C5000EFF3108272B620680028F0D102B962B694
:102C600070BD3360EFE700BFE894FF1FEC94FF1FD7
:102C7000FFF7DCBF024A136801331360704700BFDF
:102C8000E893FF1F30B42948294A2A4B2A4D602473
:102C9000E121047011701B78284C082B30D00A2BCE
:102CA0002748284937D00C2B0CBF15223D22122370
:102CB0002A60236002600B60234B24491B78244A5E
:102CC000BBB101230B601360224B23491B78234ABD
:102CD000012B26D9042B0FD9082B1ED9102B94BFFA
:102CE000862387230B6013601D4B01221A7030BCB2
:102CF00070470B601360E7E784230B601360F3E712
:102D000000F58E200F490830012213232A6023602A
:102D100002600B60D0E71922F7E785230B60136090
:102D2000E2E780230B601360DEE700BF004007404E
:102D300001400740FD88FF1F08B003400CB003406E
:102D400008B00B400CB00B400A95FF1F20B00340A9
:102D500020B00B40FE88FF1F24B0034024B00B407E
:102D60000995FF1F0A4A0B49136843F48053136007
:102D70000B7843B9084BC0221A70084B80F30C0043
:102D800000B218807047044B80221A70F5E700BF2C
:102D90002C8004400A95FF1F21C00C4000C00C404D
:102DA000704700BF70B584B072B6194B194D1A4800
:102DB000702241260F2480211A702E701A4604704A
:102DC000197013781B06FCD5144B186862B6144BA7
:102DD000144C984298BF00EB800001A998BF4000B6
:102DE0000A22FEF7E5FB01A92046002311F8012B7A
:102DF00001333AB10A2B20F8022FF7D116232370A2
:102E000004B070BD5B00DBB2237004B070BD00BFC6
:102E10000000024007000240060002400800024095
:102E20007F9698008C89FF1F0B460146184602F0DA
:102E300077B900BF90F8603090F861209A4205D9C8
:102E40005A1C034480F86020187E70474FF0FF3012
:102E5000704700BF70B5044640681E4603685B6853
:102E600015469847854201D0002070BD3146606804
:102E700000F034FDB0FA80F0400970BD30B4002598
:102E800020240572C4600170426030BC704700BFEE
:102E9000037A10B5044683B1227863680121520099
:102EA00083F8632083F8AE1083F8AD10606800F0FB
:102EB00015FDB0FA80F0400910BD012100F004F8C2
:102EC0000028E9D110BD00BF38B5044640680D4662
:102ED00000F070FB0120207205B938BD2046BDE826
:102EE0003840FFF7D5BF00BF2DE9F041079EC46809
:102EF000DDF818E09519A54219D8154602789846CC
:102F000043680F4652000121044683F8632083F88A
:102F1000AE1083F8AD106EB1BEF1000F0AD040685C
:102F2000036871465B6832469847864202D00020AB
:102F3000BDE8F08143462A4639462046BDE8F041C7
:102F4000FFF788BF2DE9F843164607468846D2B2F8
:102F50000178406800F04CFD864202D00020BDE8B8
:102F6000F88336B30023DFF854901C4612E090F843
:102F7000603090F861209A4203F1010E00EB0301EA
:102F80001AD980F860E0087E28700134A4B2A64205
:102F900023460ED97868026852694A4508EB030552
:102FA000E5D090470134A4B2C0B2A64228702346AF
:102FB000F0D80120BDE8F883FF20E5E7352E0000BA
:102FC0000AB32DE9F8431646994688460746002479
:102FD00001E0A64214D9FD68331B9D4228BF1D465F
:102FE000731BA34294BF4B46002308EB04012A46FF
:102FF0003846FFF7A7FF2C440028EAD1BDE8F88344
:103000000120BDE8F8830120704700BF2DE9F041A1
:10301000C568069F9DF81C60AA4202D90020BDE841
:10302000F08190F800C0D0F804E04FF001084FEABA
:103030004C0C1D468EF863C033468EF8AE808EF879
:10304000AD800446FFF706FF0028E7D043463A4626
:1030500029462046BDE8F041FFF7B2BF2DE9F04117
:1030600004469DF918503148A173E27363742574C6
:1030700050F8311021624FF0010E691C84F827E0EE
:10308000079E9DF820709DF8248004D050F83510DC
:10309000616184F824E0591C07D050F833300121D5
:1030A00003F50073E36184F8251050F83230A36112
:1030B0000025012384F82850277384F82630A66061
:1030C00084F80D800420FEF76FFAAF422B46184FAC
:1030D000DFF864E014BF4FF060554FF0645502E034
:1030E000172908D00B4637F8022F9EFBF2F29642C2
:1030F00003F10101F4D318F0080F01D045F0806509
:103100000C4A18F0040F52F8233007D01A0902F4C1
:10311000706223F4704345F0007513431D43002390
:103120000560606023602046BDE8F0818C5C000093
:103130007E5E0000B05E00000051250210B5042143
:1031400004464068FEF732FA204610BD10B504462A
:1031500090F90E00411C07D0C0B20121FEF718FD06
:103160000121A07BFEF70EFD206828B100F056FE7D
:10317000012084F8280010BD0121E07BFEF708FD46
:10318000617BE07B11F0FB0118BF0121FEF7FAFC27
:1031900094F91000421C07D0C0B20121FEF7F8FCE0
:1031A0000121207CFEF7EEFC94F91100431CDFD0D6
:1031B000C0B20021FEF7ECFC012084F8280010BD0D
:1031C0002DE9F047046813460A4624B12046BDE8BD
:1031D000F04700F061BE067B0C7885686249B1FB60
:1031E000F5F5002E0CBF4FF001094FF0800919EAE8
:1031F000040F0CBF4FF0010C4FF0000CEDB2002B90
:1032000000F0AF8005EB4507114602EB0308FF0015
:1032100011F801EB4B460026002D50D0002F4ED068
:103220003A46013AFDD1427B12F0F70F40F08D8013
:1032300090F91020013212D01EEA030214BF0124BB
:10324000002464450BD0002A6CD0446990F82420F7
:1032500094F800C04CEA020222704FF0010C84691D
:1032600090F8262094F800A04AEA020222701DB1CC
:1032700017B13A46013AFDD190F91120013206D03A
:10328000C26990F825401278224218BF1E43826915
:1032900090F826A0147824EA0A04147090F91120FA
:1032A000013201D001F8016C027B002A35D15B00AC
:1032B000DBB2002BB0D18845AAD1BDE8F087427BB4
:1032C00012F0F70FB4D0846990F8262094F800A08B
:1032D0004AEA0202227090F9102001320AD01EEA56
:1032E000030F44692AD090F8242094F800A04AEAF9
:1032F00002022270846990F826A0227822EA0A024B
:10330000227090F911200132CED0C26990F8254088
:103310001278224218BF1E43C4E75B08002B7FF4DB
:103320007BAFC8E7D0F814A090F824C09AF800400A
:1033300024EA0C048AF80040944690E790F824A010
:10334000227822EA0A022270D4E7846990F82620C3
:1033500094F800A04AEA020222703A46013AFDD1EE
:10336000B9E7BDE8F08700BF20A10700036893B16B
:10337000DA7A82B1D00703D5074A99691160DA7AFF
:10338000910703D5054AD9691160DA7A520702D547
:10339000034A1B6A1360704700E100E004E100E0AB
:1033A00008E100E0036830B47BB14268D97A126862
:1033B000A1B91B68D968914207D0184C1C60184904
:1033C000DA6042F080441C61196090F90E00431CE1
:1033D00022D0C0B2002130BCFEF7D4BB72B6D97A7D
:1033E000CD0706D50F4CD968256829409961216021
:1033F000D97A8C0706D50C4C196925682940D96102
:103400002160D97A490705D5084C596925682940B2
:103410001962216062B6CCE730BC704701403F00C2
:1034200000003F8080E100E084E100E088E100E00E
:1034300010B5044690F90E00431C03D0C0B2012120
:10344000FEF7A0FB2046BDE81040FFF78FBF00BF8E
:103450002DE9F04383B00C460A9F90461D46064670
:10346000FFF7A0FF77B105EB07090DF1070715F886
:10347000013B8DF80730012239463046FFF7A0FEA8
:103480004D45F4D1B8F1000F0ED004EB08050DF155
:10349000070714F8013B8DF8073001223946304602
:1034A000FFF78EFEAC42F4D13046FFF7C1FF01209A
:1034B00003B0BDE8F08300BF2DE9F04782B01746A6
:1034C0000D461C460646DDF828909DF82C80FFF737
:1034D00069FF77B105EB070A0DF1070715F8013B06
:1034E0008DF80730012239463046FFF769FE554511
:1034F000F4D1B9F1000F0FD0A1440DF1070701225B
:10350000394630468DF80780FFF75AFE9DF80730A0
:1035100004F8013B4C45F2D13046FFF789FF01200A
:1035200002B0BDE8F08700BF90F8612090F860001D
:10353000101A704790F8603090F861209A4286BF68
:103540001B18187E4FF0FF30704700BF704700BF58
:1035500038B50546B0F8AE0090B195F8AD301446D8
:10356000C3F1490294420CD805F163001844224685
:10357000FDF700FF95F8AD30234485F8AD302046C7
:1035800038BD012014462871EEE700BFB0F8AE3018
:103590006BB190F8AD30482B07D8C218013380F8D2
:1035A000AD30012082F863107047012303710020C1
:1035B000704700BF0023426980F8603080F86130B6
:1035C00080F8AC3080F8AD3080F8AE3080F8AF30A5
:1035D00006CA30B40D680469C0F8B4302A43C0F894
:1035E000B8300A60A370426990F8B1301649146887
:1035F00013441D7A5B7B01EBC5051B026D6803F468
:10360000E06343F064032B6090F8B23013449D7C78
:10361000DB7D01EBC5011B02496803F4E06343F065
:1036200064030B6021685368194205D0036928229E
:103630005A70036903229A71036920225A7103693F
:1036400080229A7030BC70478C5C000010B5026913
:10365000D378DBB2D90604463ED510215806D17086
:1036600039D503F0040303F0FF02002B52D03E498A
:10367000D4F8B42000230B7084F8AD30002A5BD05E
:10368000904794F8AD30002B56D02369D0229A7021
:10369000236994F863201A712369012284F8AC200D
:1036A0000222DA7010BD314B84F8B0009C424AD03F
:1036B0002F4B9C4252D094F8611013794729DBB20A
:1036C00007D82948007820B16018013184F86110CA
:1036D00003760223D37010BD5906C2D4917801F04D
:1036E000100101F0FF000029DDD013F001031ED10D
:1036F00094F8AC1094F8AD00884281BF4B1C0919B6
:1037000084F8AC3091F8633013712369D0229A7039
:103710002269DEE7236984F86120C0229A70236958
:10372000114A1979012111700222DA7010BDC023EB
:10373000937022691379CCE70122002384F8AD202D
:1037400084F86330A1E7626994F8B1300949134401
:103750000322187AFDF7B2FF2269ACE7626994F898
:10376000B1300549F3E700BF0B95FF1FA489FF1F88
:10377000608AFF1FDD370000E93700000369DB784E
:1037800003F0200373B190F8B0300133DBB2012BAA
:1037900080F8B0301BD9426990F8B1301344187AE0
:1037A000FEF708B870B5426903F0FF0590F8B13034
:1037B00013440446187AFDF7FDFFD4F8B8305BB126
:1037C00084F8605094F86100BDE87040184790F8A4
:1037D000AF30002BDFD0704770BD00BF0148FFF74E
:1037E000CDBF00BFA489FF1F0148FFF7C7BF00BFBF
:1037F000608AFF1F2DE9F047364FDFF8DC903B6809
:10380000026982B006460093DDF800800021782529
:10381000D3789B065AD53B680193019BC8EB030301
:103820000F2BF5D949B1102BF2D0002090703369DD
:1038300080229A7002B0BDE8F087726996F8B130C4
:1038400013440521187AFEF7A3F9726996F8B1308E
:103850001344012193F812A05046FEF799F9092468
:1038600000215046FEF78EF92B46013BFDD1012188
:103870005046FEF787F92B46013BFDD1013CEFD1C5
:10388000706996F8B1100144F0220C7A4B7B09EB79
:10389000C4011B02496803F4E06343F064030B6056
:1038A00096F8B2300344997CDB7D09EBC1011B0221
:1038B000496803F4E06343F064030B60013AFDD10F
:1038C0003269D3789B064FF00101A4D4012002B0E5
:1038D000BDE8F087E893FF1F8C5C0000F0B503693A
:1038E0001222DA700269937803F0200385B004464F
:1038F0000D46002B5ED0B42393703C4922690B68BF
:103900000093009E05E00B680193019B9B1B042B19
:1039100042D8D37803F0200303F0FF00002BF2D04D
:1039200094F8AD30002B31D04FF0000E4FF0020C68
:1039300004EB0E0393F8633013710B680393039F3A
:10394000206907E09B060DD50B680293029BDB1BE9
:10395000052B28D8C378DBB203F0020202F0FF0681
:10396000002AEFD080F803C02669F378DBB2DF06C7
:1039700032462DD49F062BD5DB0731D40EF1010E34
:1039800094F8AD305FFA8EFE7345D1D800201DBB90
:10399000002384F8AE3004E09070236980229A708E
:1039A000042005B0F0BD86702369802204209A703F
:1039B00005B0F0BD03F0FF06FFF71CFF10B90420AF
:1039C00005B0F0BD236984F8AF60B0229A7094E727
:1039D0008023B3700420DAE726698023B370D7E729
:1039E000BEF1000F0CBF02200320F6E7E893FF1F93
:1039F0002DE9F04106690025122780F8605080F813
:103A00006150F770D0F810C09CF802E00EF0200E64
:103A100088B00446884615461E46BEF1000F49D0C0
:103A2000B4238CF80230784B21691A680092DDF8D3
:103A300000E006E01A6801920198CEEB000004282D
:103A400030D8C87800F0200000F0FF070028F1D03F
:103A50004FEA480242F00102D2B20A711A68029299
:103A6000DDF808E0206906E01A6803920399CEEBBE
:103A7000010105292AD8C17801F0020101F0FF07F0
:103A80000029F1D04FF0020C80F803C02269D178F0
:103A900011F0110722D12DBB002E0CBFA0238023D3
:103AA000937003E08F70236980229A70384608B0C3
:103AB000BDE8F0810EF0FF07FFF79CFE0028F5D06F
:103AC000236984F8AF70B0229A70ACE787702369DD
:103AD000802238469A7008B0BDE8F0818023937048
:103AE0000027E3E7012D75D0A021917021690A79A3
:103AF000BE4667464FF0A80C1A680492049805E089
:103B00001A680592059A121A052A4AD8CA7802F04C
:103B1000020202F0FF08002AF2D0CF702169CA78B1
:103B2000D2B212F0100F08465AD1920658D5013D74
:103B3000EDB2012D49D0BEF1470F3BD90A79012DD5
:103B4000DAD11A680692069D05E01A680792079A6C
:103B5000521B052A46D8C27802F0020202F0FF0189
:103B6000002AF2D00223C3702269D378DBB2D906CF
:103B70003AD49B0634D5B023BEF1470F93703FD89B
:103B8000226904EB0E0312791A760EF1010E5FFA28
:103B90008EFE16B1236980229A7084F861E0774620
:103BA00084E781F80280236980229A70774684F83E
:103BB00061E07BE704EB0E0291F8048082F8188044
:103BC0000EF1010E5FFA8EFEB9E781F802C021699D
:103BD0000846B0E7A82191702069BE460279B0E797
:103BE000774663E78170DEE710217823D170013BCF
:103BF000FDD12269937803F0F7037746937055E778
:103C000023691B79C5E700BFE893FF1F0148FFF751
:103C10001DBD00BFA489FF1F0148FFF717BD00BFEE
:103C2000608AFF1F2DE9F0410468E56815F0807F88
:103C3000794D256052D1DF0740F1B380002900F0B3
:103C4000E3800D78012B18BF45F000456563013115
:103C500090F8248003F1FF3C48EA0828BCF1000FEB
:103C600000F0A88021B14D7811F8028B45EA0828B0
:103C700045682E7ABCF1020F06F1FF364FEA063690
:103C80000CBF48F0805548F01045B6B26563ACF102
:103C9000020C08E00AB114700132013B05F47045D2
:103CA000B54216D90468E56A15F0F00FF6D0A46B9A
:103CB00013F0010F17464FEA242EEBD11AB107F883
:103CC00002EB54703A4605F47045B542A3F1020385
:103CD000E8D8BCF1000F6DD00468C3E7DD074CD510
:103CE000002900F089800D78012B18BF45F00045B0
:103CF0006563013103F1FF3E90F824C0BEF1000F6F
:103D000041D029B191F801C00D78023145EA0C2C5F
:103D100045682E7ABEF1020F06F1FF364FEA0636ED
:103D20000CBF4CF080554CF01045B6B26563AEF157
:103D3000020E08E00AB114700132013B05F470452F
:103D4000B54215D90468E56A15F0F00FF6D013F006
:103D5000010F1746A46BEDD122B107F8024B2412D4
:103D600054703A4605F47045B542A3F10203E9D810
:103D7000BEF1000F07D00468C3E79E4690F824C048
:103D8000BEF1000FBDD11BB30468E16A11F0F00F62
:103D9000FBD0A16BDC071DD50AB111700132013BCC
:103DA000F1E790F824809C4648EA0828BCF1000F0F
:103DB0007FF458AF63B10468E16A11F0F00FFBD0F3
:103DC000DE07A16B0FD50AB111700132013BF1E79B
:103DD000BDE8F0812AB114460D1204F8021B55709B
:103DE0002246023BCFE72AB114460D1204F8025BCB
:103DF00051702246023BDDE790F82450012B18BF9A
:103E000045F00045656375E790F82450012B18BF15
:103E100045F0004565631BE700041F8090E80C0037
:103E2000F0B41C6859682568164F174E2943216065
:103E3000164D17491760D66015611160417A154A11
:103E40005C180A3194F8244053F8215002EBC40165
:103E500049680D60017A5C1803EB8101247ECD690D
:103E600002EBC40149680D60817A581803EB8103A5
:103E700090F83000596B02EBC002F0BC5368196037
:103E8000704700BF01401F0001100038011000788A
:103E900000001F808C5C00000BB1FFF7C3BE7047B1
:103EA00081F0004102E000BF83F0004330B54FEAEB
:103EB00041044FEA430594EA050F08BF90EA020F58
:103EC0001FBF54EA000C55EA020C7FEA645C7FEAEB
:103ED000655C00F0E2804FEA5454D4EB5555B8BF0E
:103EE0006D420CDD2C4480EA020281EA030382EA7F
:103EF000000083EA010180EA020281EA0303362D11
:103F000088BF30BD11F0004F4FEA01314FF4801CE3
:103F10004CEA113102D0404261EB410113F0004FF5
:103F20004FEA03334CEA133302D0524263EB4303AC
:103F300094EA050F00F0A780A4F10104D5F1200E4A
:103F40000DDB02FA0EFC22FA05F2801841F10001A5
:103F500003FA0EF2801843FA05F359410EE0A5F179
:103F600020050EF1200E012A03FA0EFC28BF4CF0AA
:103F7000020C43FA05F3C01851EBE37101F0004560
:103F800007D54FF0000EDCF1000C7EEB00006EEB6D
:103F90000101B1F5801F1BD3B1F5001F0CD34908F7
:103FA0005FEA30004FEA3C0C04F101044FEA44524E
:103FB00012F5800F80F09A80BCF1004F08BF5FEAD5
:103FC000500C50F1000041EB045141EA050130BDB5
:103FD0005FEA4C0C404141EB010111F4801FA4F158
:103FE0000104E9D191F0000F04BF01460020B1FAAD
:103FF00081F308BF2033A3F10B03B3F120020CDAE5
:104000000C3208DD02F1140CC2F10C0201FA0CF0C2
:1040100021FA02F10CE002F11402D8BFC2F1200C27
:1040200001FA02F120FA0CFCDCBF41EA0C019040DD
:10403000E41AA2BF01EB0451294330BD6FEA040426
:104040001F3C1CDA0C340EDC04F11404C4F1200211
:1040500020FA04F001FA02F340EA030021FA04F323
:1040600045EA030130BDC4F10C04C4F1200220FA7A
:1040700002F001FA04F340EA0300294630BD21FAB8
:1040800004F0294630BD94F0000F83F4801306BF7E
:1040900081F480110134013D4EE77FEA645C18BF72
:1040A0007FEA655C29D094EA050F08BF90EA020F09
:1040B00005D054EA000C04BF1946104630BD91EA01
:1040C000030F1EBF0021002030BD5FEA545C05D104
:1040D0004000494128BF41F0004130BD14F5800443
:1040E0003CBF01F5801130BD01F0004545F0FE41B7
:1040F00041F470014FF0000030BD7FEA645C1ABFEC
:10410000194610467FEA655C1CBF0B46024650EA22
:10411000013406BF52EA033591EA030F41F400214E
:1041200030BD00BF90F0000F04BF0021704730B5D4
:104130004FF4806404F132044FF000054FF00001A9
:1041400050E700BF90F0000F04BF0021704730B56A
:104150004FF4806404F1320410F0004548BF40423F
:104160004FF000013EE700BF42004FEAE2014FEA94
:1041700031014FEA02701FBF12F07F4393F07F4F6F
:1041800081F06051704792F0000F14BF93F07F4FA1
:10419000704730B54FF4607401F0004521F00041E4
:1041A00020E700BF50EA010208BF704730B54FF06A
:1041B00000050AE050EA010208BF704730B511F06F
:1041C000004502D5404261EB41014FF4806404F1A7
:1041D00032045FEA915C3FF4DCAE4FF003025FEA29
:1041E000DC0C18BF03325FEADC0C18BF033202EBB1
:1041F000DC02C2F1200300FA03FC20FA02F001FA0B
:1042000003FE40EA0E0021FA02F11444C1E600BFA9
:1042100070B54FF0FF0C4CF4E06C1CEA11541DBF5C
:104220001CEA135594EA0C0F95EA0C0F00F0DEF827
:104230002C4481EA030621EA4C5123EA4C5350EA0C
:10424000013518BF52EA033541F4801143F480135D
:1042500038D0A0FB02CE4FF00005E1FB02E506F0EE
:104260000042E0FB03E54FF00006E1FB03569CF043
:10427000000F18BF4EF0010EA4F1FF04B6F5007F49
:1042800064F5407404D25FEA4E0E6D4146EB0606BB
:1042900042EAC62141EA55514FEAC52040EA5E5044
:1042A0004FEACE2EB4F1FD0C88BFBCF5E06F1ED8EE
:1042B000BEF1004F08BF5FEA500E50F1000041EB25
:1042C000045170BD06F0004646EA010140EA0200D2
:1042D00081EA0301B4EB5C04C2BFD4EB0C0541EAF4
:1042E000045170BD41F480114FF0000E013C00F309
:1042F000AB8014F1360FDEBF002001F0004170BD2D
:10430000C4F10004203C35DA0C341BDC04F1140445
:10431000C4F1200500FA05F320FA04F001FA05F2D1
:1043200040EA020001F0004221F0004110EBD3709E
:1043300021FA04F642EB06015EEA430E08BF20EACA
:10434000D37070BDC4F10C04C4F1200500FA04F36D
:1043500020FA05F001FA04F240EA020001F00041FF
:1043600010EBD37041F100015EEA430E08BF20EA72
:10437000D37070BDC4F1200500FA05F24EEA020EBA
:1043800020FA04F301FA05F243EA020321FA04F0E9
:1043900001F0004121FA04F220EA020000EBD370A0
:1043A0005EEA430E08BF20EAD37070BD94F0000FA0
:1043B0000FD101F00046400041EB010111F4801FD4
:1043C00008BF013CF7D041EA060195F0000F18BF85
:1043D000704703F00046520043EB030313F4801FC1
:1043E00008BF013DF7D043EA0603704794EA0C0F7B
:1043F0000CEA135518BF95EA0C0F0CD050EA410691
:1044000018BF52EA4306D1D181EA030101F000410D
:104410004FF0000070BD50EA410606BF1046194635
:1044200052EA430619D094EA0C0F02D150EA013641
:1044300013D195EA0C0F05D152EA03361CBF104682
:1044400019460AD181EA030101F0004141F0FE4121
:1044500041F470014FF0000070BD41F0FE4141F4A5
:10446000780170BD70B54FF0FF0C4CF4E06C1CEAA5
:1044700011541DBF1CEA135594EA0C0F95EA0C0F5A
:1044800000F0A7F8A4EB050481EA030E52EA033515
:104490004FEA013100F088804FEA03334FF0805536
:1044A00045EA131343EA12634FEA022245EA111563
:1044B00045EA10654FEA00260EF000419D4208BF14
:1044C000964244F1FD0404F5407402D25B084FEAC1
:1044D0003202B61A65EB03055B084FEA32024FF46D
:1044E00080104FF4002CB6EB020E75EB030E22BFCA
:1044F000B61A754640EA0C005B084FEA3202B6EB8A
:10450000020E75EB030E22BFB61A754640EA5C0038
:104510005B084FEA3202B6EB020E75EB030E22BFC8
:10452000B61A754640EA9C005B084FEA3202B6EBC9
:10453000020E75EB030E22BFB61A754640EADC0088
:1045400055EA060E18D04FEA051545EA16754FEAEA
:1045500006164FEAC30343EA52734FEAC2025FEA08
:104560001C1CC0D111F4801F0BD141EA00014FF097
:1045700000004FF0004CB6E711F4801F04BF014368
:104580000020B4F1FD0C88BFBCF5E06F3FF6AFAE84
:10459000B5EB030C04BFB6EB020C5FEA500C50F114
:1045A000000041EB045170BD0EF0004E4EEA113197
:1045B00014EB5C04C2BFD4EB0C0541EA045170BD9E
:1045C00041F480114FF0000E013C90E645EA060EE2
:1045D0008DE60CEA135594EA0C0F08BF95EA0C0F10
:1045E0003FF43BAF94EA0C0F0AD150EA01347FF458
:1045F00034AF95EA0C0F7FF425AF104619462CE72F
:1046000095EA0C0F06D152EA03353FF4FDAE104691
:10461000194622E750EA410618BF52EA43067FF4E2
:10462000C5AE50EA41047FF40DAF52EA43057FF472
:10463000EBAE12E74FF0FF3C06E000BF4FF0010C7D
:1046400002E000BF4FF0010C4DF804CD4FEA410CE1
:104650007FEA6C5C4FEA430C18BF7FEA6C5C1BD0AE
:1046600001B050EA410C0CBF52EA430C91EA030F2F
:1046700002BF90EA020F0020704710F1000F91EA8C
:10468000030F58BF994208BF90422CBFD8176FEA5A
:10469000E37040F0010070474FEA410C7FEA6C5C28
:1046A00002D150EA013C07D14FEA430C7FEA6C5C2F
:1046B000D6D152EA033CD3D05DF8040B704700BF5B
:1046C0008446104662468C461946634600E000BFA9
:1046D00001B5FFF7B7FF002848BF10F1000F01BD7B
:1046E0004DF808EDFFF7F4FF0CBF012000205DF846
:1046F00008FB00BF4DF808EDFFF7EAFF34BF0120CB
:1047000000205DF808FB00BF4DF808EDFFF7E0FF63
:1047100094BF012000205DF808FB00BF4DF808EDB4
:10472000FFF7CEFF94BF012000205DF808FB00BF1B
:104730004DF808EDFFF7C4FF34BF012000205DF8FD
:1047400008FB00BF4FEA410C7FEA6C5C02D150EAE3
:10475000013C0AD14FEA430C7FEA6C5C02D152EA79
:10476000033C02D14FF0000070474FF0010070474A
:104770004A0011D212F5001211D20DD56FF47873E0
:10478000B3EB62520ED44FEAC12343F0004343EA35
:10479000505323FA02F070474FF00000704750EA80
:1047A000013002D14FF0FF3070474FF000007047EA
:1047B00080F0004002E000BF81F0004142001FBFD6
:1047C0005FEA410392EA030F7FEA226C7FEA236CDF
:1047D0006AD04FEA1262D2EB1363C1BFD2184140D4
:1047E00048404140B8BF5B42192B88BF704710F06A
:1047F000004F40F4000020F07F4018BF404211F00D
:10480000004F41F4000121F07F4118BF494292EA74
:10481000030F3FD0A2F1010241FA03FC10EB0C00A0
:10482000C3F1200301FA03F100F0004302D549422D
:1048300060EB4000B0F5000F13D3B0F1807F06D3DA
:1048400040084FEA310102F10102FE2A51D2B1F1D2
:10485000004F40EBC25008BF20F0010040EA0300C7
:104860007047490040EB000010F4000FA2F1010274
:10487000EDD1B0FA80FCACF1080CB2EB0C0200FAFE
:104880000CF0AABF00EBC25052421843BCBFD0404C
:104890001843704792F0000F81F4000106BF80F4C6
:1048A00000000132013BB5E74FEA41037FEA226C89
:1048B00018BF7FEA236C21D092EA030F04D092F054
:1048C000000F08BF0846704790EA010F1CBF002088
:1048D000704712F07F4F04D1400028BF40F00040E5
:1048E000704712F100723CBF00F50000704700F005
:1048F000004343F0FE4040F4000070477FEA22622C
:1049000016BF08467FEA23630146420206BF5FEAFC
:10491000412390EA010F40F4800070474FF00003FC
:1049200004E000BF10F0004348BF40425FEA000CC3
:1049300008BF704743F0964301464FF000001CE06B
:1049400050EA010208BF70474FF000030AE000BFC1
:1049500050EA010208BF704711F0004302D54042FF
:1049600061EB41015FEA010C02BF84460146002071
:1049700043F0B64308BFA3F18053A3F50003BCFA8C
:104980008CF2083AA3EBC25310DB01FA02FC634439
:1049900000FA02FCC2F12002BCF1004F20FA02F240
:1049A00043EB020008BF20F00100704702F1200233
:1049B00001FA02FCC2F1200250EA4C0021FA02F294
:1049C00043EB020008BF20EADC7070474FF0FF0C99
:1049D0001CEAD0521EBF1CEAD15392EA0C0F93EA94
:1049E0000C0F6FD01A4480EA010C400218BF5FEA36
:1049F00041211ED04FF0006343EA501043EA5111A9
:104A0000A0FB01310CF00040B1F5000F3EBF4900A2
:104A100041EAD3715B0040EA010062F17F02FD2AA6
:104A20001DD8B3F1004F40EBC25008BF20F0010089
:104A3000704790F0000F0CF0004C08BF49024CEAA0
:104A4000502040EA51207F3AC2BFD2F1FF0340EA32
:104A5000C250704740F400004FF00003013A5DDCA3
:104A600012F1190FDCBF00F000407047C2F10002E4
:104A7000410021FA02F1C2F1200200FA02FC5FEAD1
:104A8000310040F1000053EA4C0308BF20EADC701B
:104A9000704792F0000F00F0004C02BF400010F48D
:104AA000000F013AF9D040EA0C0093F0000F01F03A
:104AB000004C02BF490011F4000F013BF9D041EA5C
:104AC0000C018FE70CEAD15392EA0C0F18BF93EA5E
:104AD0000C0F0AD030F0004C18BF31F0004CD8D188
:104AE00080EA010000F00040704790F0000F17BF0F
:104AF00090F0004F084691F0000F91F0004F14D055
:104B000092EA0C0F01D142020FD193EA0C0F03D1AC
:104B10004B0218BF084608D180EA010000F00040AF
:104B200040F0FE4040F40000704740F0FE4040F48A
:104B3000400070474FF0FF0C1CEAD0521EBF1CEA29
:104B4000D15392EA0C0F93EA0C0F69D0A2EB030247
:104B500080EA010C49024FEA402037D04FF08053E1
:104B600043EA111143EA10130CF000408B4238BFA6
:104B70005B0042F17D024FF4000C8B4224BF5B1AB4
:104B800040EA0C00B3EB510F24BFA3EB510340EA02
:104B90005C00B3EB910F24BFA3EB910340EA9C00B0
:104BA000B3EBD10F24BFA3EBD10340EADC001B0120
:104BB00018BF5FEA1C1CE0D1FD2A3FF650AF8B42C4
:104BC00040EBC25008BF20F0010070470CF0004CD1
:104BD0004CEA50207F32C2BFD2F1FF0340EAC250FC
:104BE000704740F400004FF00003013A37E792F0BD
:104BF000000F00F0004C02BF400010F4000F013A1B
:104C0000F9D040EA0C0093F0000F01F0004C02BF15
:104C1000490011F4000F013BF9D041EA0C0195E77E
:104C20000CEAD15392EA0C0F08D142027FF47DAF17
:104C300093EA0C0F7FF470AF084676E793EA0C0F07
:104C400004D14B023FF44CAF08466EE730F0004C05
:104C500018BF31F0004CCAD130F000427FF45CAF95
:104C600031F000437FF43CAF5FE700BF4FF0FF3C03
:104C700006E000BF4FF0010C02E000BF4FF0010C56
:104C80004DF804CD4FEA40024FEA41037FEA226C1F
:104C900018BF7FEA236C11D001B052EA530C18BF41
:104CA00090EA010F58BFB2EB030088BFC81738BFA6
:104CB0006FEAE17018BF40F0010070477FEA226C94
:104CC00002D15FEA402C05D17FEA236CE4D15FEA90
:104CD000412CE1D05DF8040B704700BF84460846C4
:104CE0006146FFE70FB5FFF7C9FF002848BF10F185
:104CF000000F0FBD4DF808EDFFF7F4FF0CBF0120CA
:104D000000205DF808FB00BF4DF808EDFFF7EAFF53
:104D100034BF012000205DF808FB00BF4DF808ED0E
:104D2000FFF7E0FF94BF012000205DF808FB00BF03
:104D30004DF808EDFFF7D2FF94BF012000205DF889
:104D400008FB00BF4DF808EDFFF7C8FF34BF012096
:104D500000205DF808FB00BF42000ED2B2F1FE4F0A
:104D60000BD34FF09E03B3EB126209D44FEA00233A
:104D700043F0004323FA02F070474FF00000704701
:104D800012F1610F01D1420202D14FF0FF307047A2
:104D90004FF00000704700BF7BB972B90029BEBF59
:104DA00000204FF0004106E008BF00281CBF6FF054
:104DB00000414FF0FF3000F0B1B9ADF1080C6DE9E2
:104DC00004CE002909DB002B1ADB00F035F8DDF8F2
:104DD00004E0DDE9022304B07047404261EB410189
:104DE000002B1BDB00F028F8DDF804E0DDE90223EE
:104DF00004B0404261EB4101524263EB4303704710
:104E0000524263EB430300F017F8DDF804E0DDE9FC
:104E1000022304B0404261EB41017047524263EB10
:104E2000430300F009F8DDF804E0DDE9022304B0F3
:104E3000524263EB430370472DE9F0478C460E4620
:104E40000446089D002B50D18A4217466CD9B2FA0D
:104E500082FEBEF1000F0BD0CEF1200420FA04F444
:104E600001FA0EF644EA060C02FA0EF700FA0EF406
:104E70004FEA1749220CBCFBF9F01FFA87F809FB2F
:104E800010C642EA064600FB08F3B34209D9F619F8
:104E900000F1FF3280F02281B34240F21F810238DC
:104EA0003E44F61AA2B2B6FBF9F309FB136642EAD6
:104EB000064403FB08F8A04509D9E41903F1FF32C1
:104EC00080F00A81A04540F20781023B3C44C8EBD8
:104ED000040443EA00400021002D62D024FA0EF4BD
:104EE00000232C606B60BDE8F0878B4207D9002D52
:104EF00055D0002185E841000846BDE8F087B3FAA7
:104F000083F1002940F09080B34202D3824200F244
:104F1000F880841A66EB03060120B446002D40D0C9
:104F200085E81010BDE8F08712B90127B7FBF2F74A
:104F3000B7FA87FEBEF1000F35D1F31B4FEA1748D1
:104F40001FFA87FC0121B3FBF8F0220C08FB103696
:104F500042EA06460CFB00F3B34207D9F61900F10A
:104F6000FF3202D2B34200F2CE801046F61AA2B24D
:104F7000B6FBF8F308FB136642EA06440CFB03FC9D
:104F8000A44507D9E41903F1FF3202D2A44500F287
:104F9000B5801346CCEB040443EA00409CE7294665
:104FA0002846BDE8F087CEF1200106FA0EF307FA95
:104FB0000EF720FA01F94FEA1748CE4049EA0309F3
:104FC000B6FBF8FA4FEA194408FB1A661FFA87FC89
:104FD00044EA06430AFB0CF29A4200FA0EF40AD99C
:104FE000DB190AF1FF3180F087809A4240F2848019
:104FF000AAF1020A3B449B1A1FFA89F9B3FBF8F1A4
:1050000008FB113349EA034301FB0CF69E4207D922
:10501000DB1901F1FF326BD29E4269D902393B4460
:105020009B1B41EA0A418EE7C1F1200E22FA0EF4E1
:105030008B40234320FA0EF706FA01F44FEA134C93
:1050400026FA0EF63C43B6FBFCF9270C0CFB19665E
:105050001FFA83F847EA064609FB08F7B74202FA47
:1050600001F200FA01FA08D9F61809F1FF3041D22D
:10507000B7423FD9A9F102091E44F61BA0B2B6FB04
:10508000FCF40CFB146640EA064704FB08F8B8453C
:1050900007D9FF1804F1FF3028D2B84526D9023CC1
:1050A0001F4444EA0940C8EB0707A0FB02894F45AB
:1050B00044464E4614D329D065B3BAEB040367EBDC
:1050C000060707FA0EFECB40CF404EEA030385E801
:1050D00088000021BDE8F0871346F8E61046E0E6B8
:1050E000B8EB020469EB03060138E5E70446D8E7AC
:1050F000114695E78146C0E78A467CE7023B3C447F
:1051000048E708460AE702383E442FE7C245E7D39E
:105110003E46D1E72946BDE8F08700BF704700BF93
:1051200013460A460146022000F08EBB014B186868
:10513000704700BF488FFF1F70B50F4E0F4D761B95
:10514000B61018BF002405D0013455F8043B984729
:10515000A642F9D10A4E0B4D761B00F0D9FEB610CF
:1051600018BF002406D0013455F8043B9847A642E6
:10517000F9D170BD70BD00BF1C5F00001C5F000056
:10518000285F00001C5F0000024B0146186800F019
:105190000BB800BF488FFF1F024B0146186800F094
:1051A00017BC00BF488FFF1F2DE9F04F01F10B0521
:1051B000162D83B0064640F29F8035F0070500F1BA
:1051C000BF80A94200F2BC8000F0F4FAB5F5FC7F84
:1051D000C0F09C826B0A00F0BA80042B00F283813D
:1051E000A80900F1390E4FEA4E033830C44F07EBDF
:1051F0008303A3F108015C68A14207D1ACE0002A57
:1052000080F2AC80E468A14200F0A680636823F0DD
:1052100003035A1B0F2AF2DDB9493C6901F1080E5C
:10522000744500F0B381636823F003035A1B0F2A0F
:1052300000F39981002AC1F814E0C1F810E080F26F
:105240009E80B3F5007F80F06781DB0803F1010CDD
:1052500001229B1002FA03F34A6851F83C80C4F81B
:10526000088001EBCC091A43A9F10803E3604A6006
:1052700041F83C40C8F80C40831001249C40944203
:1052800000F28A80144206D120F003006400144228
:1052900000F10400FAD007EBC009CC468046DCF8E8
:1052A0000C108C4507D173E1002A80F28181C96816
:1052B0008C4500F06D814B6823F003035A1B0F2AC5
:1052C000F2DD0C46D1F80CC054F8088F4B1945F0AC
:1052D00001054D6042F00101C8F80CC03046CCF821
:1052E00008807B613B61C3F80CE0C3F808E05960BB
:1052F0009A5000F061FA1FE0102921D800F05AFA04
:105300001025062302207E4F07EB8303A3F108023A
:105310005C68944200F045816368E168A56823F009
:105320000303234430465A68E96042F001028D606D
:105330005A6000F041FA0834204603B0BDE8F08F0F
:1053400000240C232046336003B0BDE8F08F802397
:105350004FF0400E3F2049E770465DE72344E16887
:105360005A68A56842F00102E96030468D605A60D3
:1053700000F022FA0834204603B0BDE8F08F234441
:1053800030465A6842F001025A6000F015FA0834BB
:10539000204603B0BDE8F08FBC68636823F00308C3
:1053A000A84504D3C5EB08030F2B00F38C80554BA5
:1053B000DFF860911A68D9F8003001332A4404EB11
:1053C000080A00F0608102F580520F3222F47F62F9
:1053D00022F00F0211463046019200F0EFF9B0F1D1
:1053E000FF3F8346019A00F05881824500F2FC801D
:1053F000454B1968DA451144196000F05381D9F81A
:105400000000DFF810E101301BBFCAEB0B0A51446A
:10541000CEF800B019601BF0070100F01781C1F150
:105420000800C1F58051834408315A44C2F30B028D
:10543000C2EB010949463046019300F0BFF9431C15
:10544000019B00F03F81CBEB00024A4442F0010295
:105450001968C7F808B04944BC42CBF80420196069
:10546000DFF8A49016D0B8F10F0F40F2FD8062680B
:10547000A8F10C0323F00703E01802F001024FF03B
:10548000050E1A430F2B6260C0F804E0C0F808E074
:1054900000F21C811D4BBC681A68914288BF1960DC
:1054A0001B4B1A689142626888BF196022F00302A0
:1054B0009542A2EB050301D80F2B04DC304600F027
:1054C0007BF9002438E7621943F0010345F0010538
:1054D00065603046BA60536000F06EF908342046CB
:1054E00003B0BDE8F08F142B71D9542B00F2A480C7
:1054F000280B00F16F0E4FEA4E036E3076E600BFC8
:105500004C8FFF1F1495FF1F1895FF1F1095FF1F4D
:105510000C95FF1F5893FF1F5A0A042A5ED9142ABC
:1055200000F2B38002F15C0149005B3207EB810CB1
:1055300057F82110DFF8DC81ACF1080C8C4500F045
:1055400088804A6822F00302934202D289688C451F
:10555000F7D1D1F80CC07A68C4F80CC0A160CCF8BF
:105560000840CC6088E6631942F0010745F0010568
:10557000656030464B610B61C3F80CE0C3F808E08E
:105580005F609A50083400F017F9D5E64A6873E670
:1055900008F1010818F0030F0CF1080C7FF47FAE3E
:1055A00030E0DC68A34208BF02303FF435AEB3E61A
:1055B0000B440C465A68C96854F8085F42F001026F
:1055C0005A603046E9608D6000F0F6F8B4E603F109
:1055D0005C0E03F15B004FEA4E0307E69A0902F105
:1055E000390149003832A1E7BC424A4B3FF400AFD1
:1055F0009C68626822F003025AE759F80839994515
:1056000040F0828010F0030F00F1FF30F5D17B688D
:1056100023EA04037B6064009C423FF6BDAE002C8D
:105620003FF4BAAE1C4240467FF435AE64001C42E3
:1056300000F10400FAD02EE6B3F5AA7F18D8E80BE3
:1056400000F1780E4FEA4E037730CFE54FF48051EA
:10565000EBE60121D8F80430921001FA02F21A4365
:10566000C8F80420614677E70123CBF8043025E72A
:1056700040F25452934220D8A80C00F17D0E4FEA1C
:105680004E037C30B2E51032A4E6542A26D81A0B19
:1056900002F16F0149006E3248E7BC68626822F08F
:1056A000030205E7CAF30B0000287FF4A8AE4244CA
:1056B000BB6842F001025A60ECE6FE234FF07F0E19
:1056C0007E2093E501224FF00009C1E604F10801B4
:1056D000304600F07DF9D9F80010DBE6B2F5AA7F7C
:1056E00005D8DA0B02F17801490077321EE740F263
:1056F00054518A4205D89A0C02F17D0149007C324E
:1057000014E7FE217E2211E77B6884E7E808431C4A
:105710005B00F8E54C8FFF1F70B4840746D0541E21
:10572000002A41D0CDB2034602E0621EE4B3144623
:1057300003F8015B9A07F8D1032C2ED9CDB245EAC4
:1057400005250F2C45EA054519D903F11002264617
:10575000103E0F2E42F8105C42F80C5C42F8085CD8
:1057600042F8045C02F11002F2D8A4F1100222F017
:105770000F0204F00F041032032C13440DD91E46FF
:105780002246043A032A46F8045BFAD8221F22F084
:1057900003020432134404F003042CB1C9B21C44C4
:1057A00003F8011BA342FBD170BC704714460346AB
:1057B000C2E700BF704700BF704700BF38B5074C55
:1057C0000023054608462360FBF7D8FE431C00D0A3
:1057D00038BD2368002BFBD02B6038BD5495FF1FCC
:1057E00040EA01039B0770B42BD1032A29D90C4648
:1057F0000346214654F8046BA6F1013525EA060557
:1058000015F0803F06D1043A032A43F8046B214681
:10581000EFD8A2B10C781C70013A013301313CB1D0
:105820006AB111F8014B03F8014B013A002CF7D192
:105830002AB11A44002103F8011B9A42FBD170BC23
:1058400070470346E5E700BF2DE9F047254C256882
:10585000D5F848410646884692469946C4B36068E2
:105860001F2817DC431C76B104EB80050122C5F824
:1058700088A0D4F8881182401143022EC4F8881100
:10588000C5F808911ED00230636044F820800020E3
:10589000BDE8F087144B03B34FF4C870FFF774FCF6
:1058A0000446D0B1D5F84831002780E88800C5F813
:1058B000484138460123C4F88871C4F88C71002E21
:1058C000E1D0D1E7D4F88C110A43C4F88C21DAE78F
:1058D00005F5A674C5F84841C1E74FF0FF30BDE8B3
:1058E000F08700BF0C5F000089510000024B13B12C
:1058F000024800F005B87047000000000D59000094
:10590000002301461A461846FFF79EBF38B5074DDB
:10591000074C2C1BA41005D0013C55F8043D9847BA
:10592000002CF9D1BDE8384000F0FEBA00000000BC
:1059300000000000F8B5234F0C460646FFF73AFF7B
:10594000BB685D6825F00305291B01F6EF7121F4A2
:105950007F6121F00F01A1F58054B4F5805F07DB72
:1059600000213046FFF72AFFBB682B44984204D041
:105970003046FFF721FF0020F8BD61423046FFF7B7
:105980001DFF01300DD0104BBA6819682D1B45F072
:1059900001053046091B55601960FFF70DFF012016
:1059A000F8BD00213046FFF709FFBA68831A0F2BB4
:1059B000DEDD064C0449246843F00103001B5360FC
:1059C0000860D5E74C8FFF1F1895FF1F5893FF1FE6
:1059D000002945D02DE9F0410D468046FFF7EAFE4B
:1059E00055F8047C6A4927F00103A5F10804E21880
:1059F0008E685068B24220F0030062D0FE0750600B
:105A00000BD455F8087CE41B01F1080EA568754518
:105A10003B446FD0E768EF60BD6015186D68ED0717
:105A200042D543F001026260E350B3F5007F18D223
:105A3000DB085A1C4D6851F83270A76001209B109A
:105A400000FA03F301EBC2001D430838E0604D602B
:105A500041F83240FC604046BDE8F041FFF7ACBE83
:105A600070475A0A042A53D89A0902F139077F006D
:105A700002F1380501EB870051F827204449083826
:105A800090424DD0516821F003018B4202D29268BE
:105A90009042F7D1D068E060A2608460D460404654
:105AA000BDE8F041FFF788BE95683A4FBD42034418
:105AB0003FD0D068E86043F0010285606260E35047
:105AC000B3E7FF07034407D455F8082CA41A13447E
:105AD000A068E268C26090602F4A126843F001003B
