:1000000000800020BD01000041060000F90500004D
:10001000F9050000F9050000F9050000F9050000E8
:10002000F9050000F9050000F9050000410600008F
:1000300041060000F9050000491800004D180000B5
:100040004106000041060000410600004106000094
:100050004106000041060000410600004106000084
:100060004106000041060000410600004106000074
:100070004106000041060000410600004106000064
:100080004106000041060000410600004106000054
:100090004106000041060000410600004106000044
:1000A0004106000041060000410600004106000034
:1000B0004106000041060000410600004106000024
:1000C0004106000041060000410600004106000014
:1000D0004106000041060000410600004106000004
:1000E00041060000410600004106000041060000F4
:1000F00041060000410600004106000041060000E4
:1001000041060000410600004106000041060000D3
:1001100041060000410600004106000041060000C3
:1001200041060000410600004106000041060000B3
:1001300041060000410600004106000041060000A3
:100140004106000041060000410600004106000093
:100150004106000041060000410600004106000083
:1001600041060000010D00004106000041060000AC
:100170004106000041060000410600004106000063
:100180004106000041060000410600004106000053
:100190004106000041060000410600004106000043
:1001A0004106000041060000410600004106000033
:1001B000410600004106000041060000564B4CF28B
:1001C000205210B51A804DF628121A8000BF00BFC9
:1001D00000F03AFA514B4FF010621A60504A9A60A0
:1001E000504ADA60504A136813F4807304D14F49BF
:1001F0000B604FF4A85313604D4B1A78110703D5C9
:100200001A7842F008021A704A4B4B492A221A7097
:100210004A4A4B4B8B4204D252F8040F43F8040B6A
:10022000F8E7484B484900228B4202D243F8042B9E
:10023000FAE74649464A002352F8230041F82300D2
:1002400001336F2BF8D1434B434A802103F8011B44
:100250009342FBD1414B3D4A1A60414B8A221A70AE
:10026000A3F5805324225A70A0221A709A7992071B
:10027000FCD59A79D406FCD43A4A937903F00C035E
:10028000082B384BF9D105221A7143225A719A79F9
:100290009006FCD5334A9179324B4906FBD5324A58
:1002A0004FF0817111600521516020221A709A79F6
:1002B00002F00C020C2AFAD12C4B2D4A1A602D4B5D
:1002C0002D4A1A6000225A60072243F8042C2B4A58
:1002D000C3F80C2D62B600F01DFC144B1B68DA0746
:1002E00005D5274800F016FA264B274A1A60274BF7
:1002F0001B785B0609D5234C234B22689A4204D114
:100300001F4800F007FA0023236000F0A3F901F072
:1003100091FE00F069F9FEE70E20054030800440B0
:10032000823F04000100002B10D0034014D0034092
:1003300002D0074000E00740F88BFF1FF4220000C6
:100340002087FF1FF88BFF1F548DFF1F0082FF1FA8
:100350000000000000E400E05FE400E008ED00E0E1
:1003600000500640004006404480044004800440A1
:10037000C010050014E000E03F190100000020203B
:100380007DC4AB621CE00340A5C3945A00F0074053
:10039000FFFFFFFFFFFFFFFFFFFFFFFFFFFFFFFF6D
:1003A000FFFFFFFFFFFFFFFFFFFFFFFFFFFFFFFF5D
:1003B000FFFFFFFFFFFFFFFFFFFFFFFFFFFFFFFF4D
:1003C000FFFFFFFFFFFFFFFFFFFFFFFFFFFFFFFF3D
:1003D000FFFFFFFFFFFFFFFFFFFFFFFFFFFFFFFF2D
:1003E000FFFFFFFFFFFFFFFFFFFFFFFFFFFFFFFF1D
:1003F000FFFFFFFFFFFFFFFFFFFFFFFFFFFFFFFF0D
:10040000FFFFFFFFFFFFFFFFFFFFFFFFDEF9FFFF23
:1004100010B5054C237833B9044B13B10448AFF33E
:1004200000800123237010BDF88BFF1F0000000027
:10043000F8220000084B10B51BB108490848AFF37B
:1004400000800848036803B910BD074B002BFBD0A0
:10045000BDE81040184700BF00000000FC8BFF1FE4
:10046000F8220000F88BFF1F000000001C481D4A06
:10047000F8B504681C4D1D4F40F2EE2613783BB1D1
:100480002B78DB0704D5036839685B1A0E2B06D876
:10049000036811781B1B01B3B3F5FA6FEED942F272
:1004A000107000F0E7FA4FF416634FF4087217214A
:1004B0000F4800F02BF800210D4800F063F841F2DE
:1004C000883000F0D7FA0A48B42100F05BF84FF406
:1004D0007A70BDE8F84000F0CDBAB342CED9DEE77D
:1004E000208CFF1F048DFF1F188DFF1F508DFF1FD5
:1004F000148CFF1F704700BF014800F003B800BF15
:10050000148CFF1FFF22027042707047212930D8DF
:10051000F8B5CD1E1D2D2AD8174CEC4004F001046F
:1005200084F001061CB30446C8B21D46174620706D
:10053000124900F011FA3A112B11FF20A270E3705A
:1005400031466070207800F089FA2078012100F0AF
:100550008BFA23780A495C11012051F8242003F01A
:100560001F0300FA03F3134341F82430F8BD0020C1
:10057000F8BD0020704700BFCF005E200000484259
:10058000188CFF1F0378212B27D8002970B504464B
:1005900024DBB42925DDB4200146A378E27860701D
:1005A000D01A4BF20B6202FB00F21B0301FB02F1BB
:1005B00003EBE12140F61B5505FB01F18D0D72B6F1
:1005C0000C2000F0B9F929460646207800F0B6F86C
:1005D000304600F0B1F962B670BD704700200146A8
:1005E000DBE7C8B2D9E700BF08B5FFF73FFFFFF769
:1005F00081FF01F091F8FAE708B5104C08E0236894
:1006000059050DD423681A050FD42368DB0411D4CF
:1006100023685803F3D500F073FB23685905F1D51F
:1006200000F00EF823681A05EFD500F009F82368EA
:10063000DB04EDD500F004F8EAE700BF34800440A5
:1006400008B5FFF7D9FF00BF014B10221A80704791
:1006500000200540704700BF10B40F4B53F8302006
:1006600092F880422CB1012369B182F8803010BC2D
:10067000704703EBC0035B681A6841B922F00202BD
:100680001A6010BC704782F8003110BC704742F00D
:1006900003021A6010BC7047702100001C4A02EB74
:1006A000C00301295B6811D004291BD052F8300027
:1006B000002280F8802229B1022920D0032922D0EB
:1006C0001A6070474FF480721A60704752F8300019
:1006D0004FF4A27280F880121A601A6822F0200289
:1006E0001A60704752F830104FF4A272012081F85E
:1006F00080021A601A6842F020021A60704740F2C5
:1007000003121A6070474FF481721A60704700BF7D
:100710007021000030B4054B054D064C002210211D
:100720001A602A602060196030BC704714D0034002
:1007300004D0034000D00340704700BF282838B5DC
:100740002ED0002904464FDD5F4B1B78012505FAAA
:1007500003F28A4202D8212837D938BD0338C2B201
:10076000012A3AD9202C4AD0192C48D0574A12686D
:1007700002FB011222FA03F31D2800F29B80DFE83E
:1007800000F0928B847D9999766F999999999999AE
:1007900099999968615A53994C9999999999994558
:1007A000494B1B780B2B08D90C2B1CBF0C3B194158
:1007B0000846BDE8384001F0C1B8C3F10C039940C8
:1007C0000846BDE8384001F0B9B82946FFF744FFB4
:1007D0002946BDE83840FFF761BF3D4A126802FB79
:1007E000011222FA03F3C7E72128B6D80021FFF748
:1007F00033FF20460121BDE83840FFF74FBF354A9F
:10080000126802FB011222FA03F3B5E73249334AB8
:100810000B604FF45173136038BD3149314A0B609E
:100820004FF45173136038BD2F49304A0B6040F2CA
:100830004443136038BD2E492E4A0B6040F24443B6
:10084000136038BD2C492D4A0B6040F244431360BD
:1008500038BD2B492B4A0B6040F24443136038BD2E
:1008600029492A4A0B6040F24443136038BD2849A5
:10087000284A0B6040F24443136038BD2649274A9A
:100880000B6040F24443136038BD2549254A0B6094
:1008900040F24443136038BD2349244A0B604FF4AF
:1008A0005173136038BD2249224A0B604FF45173D3
:1008B000136038BD212C3FF650AF7F29D4BF0021F3
:1008C0000121204693E700BF2087FF1F08800340D7
:1008D0000890034008800B4010800B4048A0044063
:1008E00018800B404CA004401880034008B004401E
:1008F0001080034004B004404080034018C004400E
:100900003880034014C004402880034010B00440E5
:10091000208003400CB004403080034010C00440ED
:10092000488003401CC004401890034034900440A9
:10093000109003403090044038B1102828BF102098
:10094000044AC3B2107813707047024A012310782A
:10095000137070472087FF1F2DE9F8430E4680462D
:100960003249334D304601F01DFB47F61223002873
:100970001ABF1D464FF002094FF00109002425FA65
:1009800004F001F019F94FF05E51074601F06CF9DF
:100990000146304601F01AFB30B90134072CEED184
:1009A000E80901F009F907463146384601F010FA26
:1009B0004FF07C5101F04EF801F01CFB4FF6FF7236
:1009C0009042A8F1030328BF1046012B29D9B8F1A2
:1009D000170F17D8174B23FA08F303F0010383F01E
:1009E000010223B9B8F1190F0FD0BDE8F883124BFB
:1009F000124D13491A6044EAC9042A6008601C6059
:100A0000BDE8F883B8F1200FECD10E4B0E4D0F4925
:100A1000002244EAC9041A602A6008601C60BDE82C
:100A2000F8830B4B0B4D0C49F2E700BF4054894053
:100A3000005125026006F00000800340048003405E
:100A40000880034000800B4004800B4008800B406E
:100A5000009003400490034008900340212801D8EF
:100A6000FFF7FABD704700BF212801D8FFF716BE77
:100A7000704700BF2DE9F843054672B6214F224B5F
:100A8000224A1B683C68126862B6520102D5322BBA
:100A900088BF0134A5B3C3F58C331D4EDFF86890D1
:100AA000DFF8688003F23F134FF47A72A6FB03135A
:100AB00002FB04F404EB131472B6D9F800103A6880
:100AC000D8F800E062B6C1F58C3303F23F13A6FB01
:100AD00003031EF0806FC4EB13134FF47A7002D03F
:100AE000322988BF013200FB0233B3F57A7F04D389
:100AF000013D05D004F57A74DEE700F00DFEDBE77A
:100B0000BDE8F883208CFF1F18E000E004ED00E052
:100B1000398EE338F8B52E4B2E49DFF8D4E0DFF8F4
:100B2000D4C02D4E2D4D2E4C2E4A2F4F4FF4000089
:100B300018604FF0807018604FF0007018604FF030
:100B4000806018604FF00060186000200860282363
:100B500048F6FF71CCF80010CEF800303360136017
:100B60002B6023603B60B3629362092245F8242C1A
:100B7000C4F8D80F05F57F65C7F8D41F07F5FF2720
:100B800007F5FA67C6F8F83F2B6006F5FF26C4F8AC
:100B9000D42F05F5FD2504F5FF24386006F2F47620
:100BA0001248316005F5FF6504F5FD642B60236094
:100BB000026000F053FEFFF7BFFD1420FFF75AFF5D
:100BC00000F0D8FC4FF48C70BDE8F840FFF752BF3E
:100BD00008E100E0048003401480034024800340C7
:100BE0002C8003401C8003403480034000800B4075
:100BF0000C80034008800340F0B472B61A491B4EC3
:100C0000012311F8014B194F9A00240742F0010506
:100C100005D556F8324064B156F83520BAB10133E3
:100C2000052BEED162B6124B00221A70F0BC00F018
:100C30001BBD0F4C0F4D217807EB431308300139D2
:100C40005860217047F8325062B6F0BC7047084ACD
:100C50000949137807EBC5040830013B6060137045
:100C600047F8351062B6F0E7802200000080FF1FD1
:100C7000F98CFF1F88004000C8004000431E032B72
:100C80001DD81B4A400140F0100030B4104472B629
:100C9000184CE25C032A1BD8DFE802F00212151799
:100CA00003220D88E25410F0080F14BFC8238823D4
:100CB00043EA054308314160036062B630BC7047C7
:100CC00008300222EDE70522EBE708300422E8E7CE
:100CD000094A52F8230038B1084A52F8230041600B
:100CE00042F8231062B6E9E742F82310034AF7E717
:100CF0000080FF1F088DFF1FD08CFF1FE08CFF1F9F
:100D00002DE9F04FDFF814B3DFF814A387B044E007
:100D1000AD4F4FEA930807EBC809013ED9F804200C
:100D200003F00803F6B2A2F1080003F0FF04002B61
:100D300040F0038157F838301B0C99B222F8081C98
:100D4000002B00F0F180A14B22F8064C42F8044C35
:100D500053F82620002A00F06C819D4D55F826306E
:100D600058609C4C45F8260034F81630194424F895
:100D7000161000F059FC002800F05481964A974B59
:100D800019F0080F00F1080018BF1346C9F8040055
:100D900047F8383008238BF800309BF80040E4B265
:100DA00060071BD58E4B1B78ABB18E490A7802F0D9
:100DB000FF032AB1013BDBB20B70002B00F0B583BF
:100DC00089490A7802F0FF032AB1013BDBB20B70BC
:100DD000002B00F0F68004238BF8003004F00803A9
:100DE00003F0FF02002B00F0D5809AF80030DBB250
:100DF0001E098DD19C08744F57F8342007EBC401AD
:100E0000C2F38302013A49680C2A7ED8DFE802F077
:100E100081817D7D7D7D7D7D427D7D7D07000868B2
:100E2000724B734D01936C4B4A68724E47F83430E5
:100E300081B240F281646D4B6A602860002201201B
:100E4000A1423A611A60BA61307000F2F680B1F5E1
:100E5000D06F80F0E882B1F5817F00F0D38200F29C
:100E6000D881802900F04D81822940F09282A988A2
:100E7000614B01F07F01042900F28C825F4C8900F4
:100E80000B44227062701A78930740F13883207007
:100E900002203AE1554B01931A6862B3584B594905
:100EA000544E18880C7896F800E04028054684F0E7
:100EB000010C28BF402544F00204BEF1000F81F868
:100EC00000C0A0EB050007EBC40C0CBF8821C821B3
:100ED00080B28EF0010E41EA0541CCF80420188062
:100EE00086F800E02A4447F8341010B9402D18BFA6
:100EF0000022019B1A603E4B1A88B2F5A06F04D104
:100F000000219A785970404B1A70404A012313709F
:100F100040E7374A158842F22100854200F05281AD
:100F20002D4A47F83420F0E72B4A2C4B19F0080FD4
:100F300018BF134647F838302CE700F095FB344AC9
:100F4000344952F82630002B00F02D8158688C5D12
:100F500042F8260003F10802C9F80420032C05D842
:100F6000DFE804F0120F150204228A551A8819F0DE
:100F7000080F0CBF8823C82343EA024347F83830E0
:100F800008E702228A55F1E703228A55EEE7052297
:100F90008A55EBE7E00700F17881210600F1A28194
:100FA000A20706D51C4A1D4913780220DBB2137034
:100FB0000870E30602D5194B10221A7007B0BDE87D
:100FC000F08F00F085FB06E70080FF1F7C8CFF1F81
:100FD000288CFF1F408DFF1FC80040008800400084
:100FE000048DFF1F8D8CFF1F0C8DFF1F248CFF1F96
:100FF000F08CFF1F8C8CFF1FC0200740FC8CFF1F54
:10100000388CFF1FF88CFF1F982007409420074062
:10101000D08CFF1F088DFF1F8820074080200740CD
:1010200090200740B74A47F838001378013313700F
:10103000B0E643F82600B44D93E642F22104A14203
:1010400000F0AD8000F20E81B1F5086F00F0548120
:10105000B1F5106F40F09D81AC4AA9781170AC4D8C
:10106000042402E00134142C0CD057F83430190653
:10107000F8D505EBC40301345868083800F0F4FAD9
:10108000142CF2D1A349A44BA44A0291A449A54C23
:101090009D4D039405964FF0000988461C46164660
:1010A0000495206828B1456800F0DEFA2846002D36
:1010B000F9D100232360049B30681A46002342F8CC
:1010C000293028B1456800F0CFFA2846002DF9D123
:1010D00000223260029A98F800301146002241F84E
:1010E000042B039A0291023B4FF0000122F81910E1
:1010F000032B00F2B481DFE813F0E201AE01E2015C
:10110000AE01894C022022706270EA88824280F02F
:101110000D8286490D78402A45F0020E944607EB71
:10112000CE0028BF4FF0400C04EB0C034460029348
:10113000CCEB02004FEA0C484FF001090022C82412
:1011400044EA080385F0010447F83E3032700C7021
:10115000DFF8BCE1764BDFF8D481002840F0208135
:10116000BCF1400F1BD144F0020407EBC403029F03
:10117000DFF89CE15F60002A40F02781020442F022
:10118000880286F800900D7007444EF834203B46E4
:10119000402804D10020674A019910800B60664AFC
:1011A00001231370B1E68B5D032B00F2248101A2B1
:1011B00052F823F0950D0000950D0000D9120000A3
:1011C000DF120000928862B95C4ACD1D11F8013B24
:1011D00002F8013F8D42F9D1594A1268862A00F07F
:1011E000C9805249524E0878327840F0020580F0AA
:1011F0000100087007EBC501002A4FF000004860AD
:1012000082F001020CBF8821C82147F835103270E6
:1012100086E640F20232914240F0B080A98801F0A7
:101220007F01042900F2B5806A88002A40F0B1806D
:10123000444C89000C448146217841F00201217020
:101240000020029080468446044638490D7845F0D7
:10125000020E07EBCE03B9F1000F5C600CBF8824CF
:10126000C8246DE742F22124A14240F08E80A98873
:10127000002940F04281344B344A354C1B68AD782C
:10128000136081460A462570DAE72B49204B314826
:10129000264EDFF8B0C0304DDFF8D4E02F4F0224E7
:1012A0000C702F4C18605C6098602E48D8601A61F2
:1012B0009A610D2332702C4C8CF800302B4EFF239A
:1012C0002B7001209F258EF800303A703370257006
:1012D000087007B0BDE8F08F00238B555AE5012355
:1012E0008B5557E51749224B80220D2008701A7044
:1012F000A2077FF55EAE55E6044A0B4C12782270C9
:1013000003E700BFF98CFF1F288CFF1F048DFF1F10
:101310000080FF1FE08CFF1F7C8CFF1FD08CFF1F05
:10132000088DFF1F408DFF1FFC8CFF1FF88CFF1FD7
:101330008C8CFF1F388CFF1F94200740478DFF1FA8
:10134000488DFF1FC0200740208CFF1F508DFF1FBE
:10135000188DFF1F88004000882007409820074014
:101360003C8CFF1F908CFF1F842007408C2007407F
:1013700080200740754A0F21117032E7B1F5A06F48
:1013800007D100224FF001095AE742F2213291427F
:10139000F7D06F4B0F221A706E4A01231370B4E519
:1013A00040287FF6E0AE44F002040EEBC401029E3A
:1013B0004E60AAB183F80090674A88F8005033461F
:1013C000403840334EF83420E5E6029B86F8009022
:1013D000020442F0C8020D7003444EF83420D7E6F0
:1013E00083F80090029B5D4A88F8005040384033F3
:1013F0004EF83420CFE619F0080F0CBF0223032368
:101400008B55C7E4A98801F07F010429C1D86A88F7
:10141000002ABED14E4C89000C448146217821F02F
:10142000020121700CE74E4A5468002CB1D0688844
:10143000B5F804E003E00C325468002CA9D01388FE
:101440008342F8D153887345F5D1000A03280CBFB5
:101450002078108959E64FF0010388F8003009F12F
:101460000109B9F1040F04F1040406F1040608F1BE
:1014700001087FF416AE3B4B059E3B4DDFF8F08034
:10148000002018704FF0010918F8013B05F8043BE3
:101490001A0719D44FEA890444F0020244F0030405
:1014A000002347F8323047F83430304B9D4209F181
:1014B0000109E9D196F8009089F00102C0E64FF0E9
:1014C000000388F80030CAE700F0AEF818B307EB65
:1014D00049134FEA890408305860204B47F83430EC
:1014E00000F0A2F868B144F0010307EBC302083032
:1014F0005060194A47F83320CEE78146A0E6022023
:1015000003E6184B44F001021B7847F83200154AF5
:1015100001331370C0E7134B124A1B784FEA89045A
:10152000013347F834001370DAE700BE40288446E0
:1015300028BF4FF0400C04EB0C03CCEB00004FEA4B
:101540000C48029300224FF001097EE68D8CFF1FAC
:10155000C020074094200740C80040008800400099
:1015600084220000F98CFF1FC4200740D4200740CC
:10157000802200002DE9F04100F000FA00231F490D
:101580001A4601EBC30041F833200133142B4260AB
:101590004FF000041948F4D1194A1A4F13681A4938
:1015A0001A4D1B4EDFF874C0DFF874E0DFF874806A
:1015B00043F480231360C0F307233B70C0F3074359
:1015C0000B70000EFF2302F528322870D4328CF8FD
:1015D0000030104D8EF800300F483370012388F82A
:1015E0000030702681F850404FF40074102107F845
:1015F000183C2E7004601170BDE8F0810080FF1F60
:10160000348004409C200740B0200740B4200740AD
:101610001020074049E400E008E100E08020074096
:10162000882007409420074072B60D480268B2FA3D
:1016300082F30B2B10DC4FF00041D94022EA01026B
:10164000026062B6074803EBC303DB00C218002147
:10165000C15010465160704762B60020704700BF0D
:101660002487FF1FBC83FF1F0D4B0E4AC31AA2FB2A
:1016700003231B090B2B0CD80B4A127852B972B6F4
:101680000A484FF00041026821FA03F31A4302604E
:1016900062B67047064A1278002AF0D0FFF7ACBA5B
:1016A000BC83FF1F398EE338F98CFF1F2487FF1F8F
:1016B000048DFF1F044B054A1B6890881BB11A88D4
:1016C0005B88D31A18447047148DFF1F408DFF1F8D
:1016D00038B50E4B1B7873B90D4C216861B103F01E
:1016E000FF054B880B800420FFF7C8FA256038BD42
:1016F000084B01221A7038BDFFF796FF0028F7D07B
:101700000146BDE838400420FFF7B8BA0D8DFF1F31
:10171000108DFF1F0C8DFF1F2DE9F843314E3378DC
:1017200093B1314F3A787AB90122D9073A7036D459
:101730009A0719D400225B073A7005D52B4B1A681B
:1017400012B1EFF305820AB1BDE8F883EFF310811F
:1017500072B6186818B1264C2278002A2ED00029BB
:10176000F2D162B6BDE8F883DFF8908098F80020E7
:10177000002ADFD0DFF88890002405E0013498F8D3
:101780000030E4B2A34212D959F824502B682846FD
:101790001B6998470028F1D02B699847EEE7FFF7BF
:1017A00089FFC8B9134B1B781BB93378C0E733786E
:1017B000C0E7337803F0FE033370B9E745691D6075
:1017C000012323705DB1AA6101B962B60025457796
:1017D000836898472570B7E700F0CEF8E2E7064B3C
:1017E0001D60F1E72887FF1F198DFF1F288DFF1F40
:1017F0002C8DFF1F2B87FF1F248DFF1F3C8DFF1F8C
:10180000308DFF1F70B5EFF3108272B60C4C20685C
:1018100080B10C4E00254369236073B19D6102B90C
:1018200062B6457783689847EFF3108272B62068F6
:101830000028F0D102B962B670BD3360EFE700BF97
:101840001C8DFF1F208DFF1FFFF7DCBF024A1368AE
:1018500001331360704700BF208CFF1F30B429484C
:10186000294A2A4B2A4D6024E121047011701B780B
:10187000284C082B30D00A2B2748284937D00C2B6E
:101880000CBF15223D2212232A60236002600B60E8
:10189000234B24491B78244ABBB101230B601360FE
:1018A000224B23491B78234A012B26D9042B0FD91D
:1018B000082B1ED9102B94BF862387230B6013603F
:1018C0001D4B01221A7030BC70470B601360E7E7B4
:1018D00084230B601360F3E700F58E200F49083076
:1018E000012213232A60236002600B60D0E71922D3
:1018F000F7E785230B601360E2E780230B6013603A
:10190000DEE700BF00400740014007402987FF1F76
:1019100008B003400CB0034008B00B400CB00B40C3
:101920003E8DFF1F20B0034020B00B402A87FF1FD1
:1019300024B0034024B00B403D8DFF1F0A4A0B49E1
:10194000136843F4805313600B7843B9084BC022EB
:101950001A70084B80F30C0000B218807047044BDB
:1019600080221A70F5E700BF2C8004403E8DFF1FD7
:1019700021C00C4000C00C40704700BF70B584B05F
:1019800072B6194B194D1A48702241260F24802136
:101990001A702E701A460470197013781B06FCD545
:1019A000144B186862B6144B144C984298BF00EB65
:1019B000800001A998BF40000A2200F021F801A987
:1019C0002046002311F8012B01333AB10A2B20F8ED
:1019D000022FF7D11623237004B070BD5B00DBB279
:1019E000237004B070BD00BF000002400700024039
:1019F00006000240080002407F969800B887FF1F4B
:101A0000F0B44D1E2E46002400E00134B0FBF2F38A
:101A100002FB1300092800F130078ABF3730F8B203
:101A2000C0B206F8010F1846002BEED10A19537008
:101A30004CB1107815F8016F28700133E01A834219
:101A400002F80169F5DB0846F0BC704780F0004001
:101A500002E000BF81F0004142001FBF5FEA410386
:101A600092EA030F7FEA226C7FEA236C6AD04FEA86
:101A70001262D2EB1363C1BFD218414048404140CB
:101A8000B8BF5B42192B88BF704710F0004F40F47D
:101A9000000020F07F4018BF404211F0004F41F499
:101AA000000121F07F4118BF494292EA030F3FD065
:101AB000A2F1010241FA03FC10EB0C00C3F1200378
:101AC00001FA03F100F0004302D5494260EB400007
:101AD000B0F5000F13D3B0F1807F06D340084FEA72
:101AE000310102F10102FE2A51D2B1F1004F40EB67
:101AF000C25008BF20F0010040EA030070474900CF
:101B000040EB000010F4000FA2F10102EDD1B0FA99
:101B100080FCACF1080CB2EB0C0200FA0CF0AABF8E
:101B200000EBC25052421843BCBFD040184370472C
:101B300092F0000F81F4000106BF80F40000013232
:101B4000013BB5E74FEA41037FEA226C18BF7FEA09
:101B5000236C21D092EA030F04D092F0000F08BF4B
:101B60000846704790EA010F1CBF0020704712F032
:101B70007F4F04D1400028BF40F00040704712F171
:101B800000723CBF00F50000704700F0004343F0D6
:101B9000FE4040F4000070477FEA226216BF08460C
:101BA0007FEA23630146420206BF5FEA412390EACF
:101BB000010F40F4800070474FF0000304E000BFC5
:101BC00010F0004348BF40425FEA000C08BF704776
:101BD00043F0964301464FF000001CE050EA01023A
:101BE00008BF70474FF000030AE000BF50EA01024F
:101BF00008BF704711F0004302D5404261EB41013C
:101C00005FEA010C02BF84460146002043F0B64360
:101C100008BFA3F18053A3F50003BCFA8CF2083A85
:101C2000A3EBC25310DB01FA02FC634400FA02FC8E
:101C3000C2F12002BCF1004F20FA02F243EB020095
:101C400008BF20F00100704702F1200201FA02FCF7
:101C5000C2F1200250EA4C0021FA02F243EB0200EA
:101C600008BF20EADC7070474FF0FF0C1CEAD0522E
:101C70001EBF1CEAD15392EA0C0F93EA0C0F6FD0EF
:101C80001A4480EA010C400218BF5FEA41211ED0CD
:101C90004FF0006343EA501043EA5111A0FB0131B9
:101CA0000CF00040B1F5000F3EBF490041EAD3718E
:101CB0005B0040EA010062F17F02FD2A1DD8B3F10A
:101CC000004F40EBC25008BF20F00100704790F079
:101CD000000F0CF0004C08BF49024CEA502040EACB
:101CE00051207F3AC2BFD2F1FF0340EAC250704791
:101CF00040F400004FF00003013A5DDC12F1190FCF
:101D0000DCBF00F000407047C2F10002410021FA40
:101D100002F1C2F1200200FA02FC5FEA310040F158
:101D2000000053EA4C0308BF20EADC70704792F0D1
:101D3000000F00F0004C02BF400010F4000F013A09
:101D4000F9D040EA0C0093F0000F01F0004C02BF04
:101D5000490011F4000F013BF9D041EA0C018FE773
:101D60000CEAD15392EA0C0F18BF93EA0C0F0AD079
:101D700030F0004C18BF31F0004CD8D180EA01009F
:101D800000F00040704790F0000F17BF90F0004F38
:101D9000084691F0000F91F0004F14D092EA0C0F1A
:101DA00001D142020FD193EA0C0F03D14B0218BFAD
:101DB000084608D180EA010000F0004040F0FE40F3
:101DC00040F40000704740F0FE4040F4400070478F
:101DD0004FF0FF0C1CEAD0521EBF1CEAD15392EA0E
:101DE0000C0F93EA0C0F69D0A2EB030280EA010CFE
:101DF00049024FEA402037D04FF0805343EA111197
:101E000043EA10130CF000408B4238BF5B0042F1F4
:101E10007D024FF4000C8B4224BF5B1A40EA0C0099
:101E2000B3EB510F24BFA3EB510340EA5C00B3EBCB
:101E3000910F24BFA3EB910340EA9C00B3EBD10FB9
:101E400024BFA3EBD10340EADC001B0118BF5FEA0B
:101E50001C1CE0D1FD2A3FF650AF8B4240EBC25034
:101E600008BF20F0010070470CF0004C4CEA5020F5
:101E70007F32C2BFD2F1FF0340EAC250704740F444
:101E800000004FF00003013A37E792F0000F00F036
:101E9000004C02BF400010F4000F013AF9D040EAB4
:101EA0000C0093F0000F01F0004C02BF490011F448
:101EB000000F013BF9D041EA0C0195E70CEAD15340
:101EC00092EA0C0F08D142027FF47DAF93EA0C0F27
:101ED0007FF470AF084676E793EA0C0F04D14B020B
:101EE0003FF44CAF08466EE730F0004C18BF31F0BD
:101EF000004CCAD130F000427FF45CAF31F00043B7
:101F00007FF43CAF5FE700BF4FF0FF3C06E000BF4F
:101F10004FF0010C02E000BF4FF0010C4DF804CD72
:101F20004FEA40024FEA41037FEA226C18BF7FEA82
:101F3000236C11D001B052EA530C18BF90EA010F84
:101F400058BFB2EB030088BFC81738BF6FEAE17013
:101F500018BF40F0010070477FEA226C02D15FEAAF
:101F6000402C05D17FEA236CE4D15FEA412CE1D01B
:101F70005DF8040B704700BF844608466146FFE7E2
:101F80000FB5FFF7C9FF002848BF10F1000F0FBDC4
:101F90004DF808EDFFF7F4FF0CBF012000205DF8BD
:101FA00008FB00BF4DF808EDFFF7EAFF34BF012042
:101FB00000205DF808FB00BF4DF808EDFFF7E0FFDB
:101FC00094BF012000205DF808FB00BF4DF808ED2C
:101FD000FFF7D2FF94BF012000205DF808FB00BF8F
:101FE0004DF808EDFFF7C8FF34BF012000205DF871
:101FF00008FB00BF42000ED2B2F1FE4F0BD34FF0F0
:102000009E03B3EB126209D44FEA002343F000436E
:1020100023FA02F070474FF00000704712F1610F91
:1020200001D1420202D14FF0FF3070474FF0000063
:10203000704700BF70B50F4E0F4D761BB61018BF1E
:10204000002405D0013455F8043B9847A642F9D145
:102050000A4E0B4D761B00F041F9B61018BF002454
:1020600006D0013455F8043B9847A642F9D170BD1B
:1020700070BD00BFE8220000E8220000F42200004A
:10208000E8220000024B13B1024800F005B8704787
:1020900000000000A5200000002301461A46184653
:1020A00000F014B838B5074D074C2C1BA41005D010
:1020B000013C55F8043D9847002CF9D1BDE8384063
:1020C00000F018B900000000000000002DE9F04702
:1020D000254C2568D5F848410646884692469946DB
:1020E000C4B360681F2817DC431C76B104EB80057D
:1020F0000122C5F888A0D4F8881182401143022E2D
:10210000C4F88811C5F808911ED00230636044F805
:1021100020800020BDE8F087144B03B34FF4C87053
:10212000AFF300800446D0B1D5F84831002780E8ED
:102130008800C5F8484138460123C4F88871C4F8BE
:102140008C71002EE1D0D1E7D4F88C110A43C4F889
:102150008C21DAE705F5A674C5F84841C1E74FF0D0
:10216000FF30BDE8F08700BFD8220000000000006B
:102170004008FE4340A004404408FE4344A00440FD
:102180000018FE4300C004403000FE43309004407D
:102190003400FE43349004401C18FE431CC004402D
:1021A0001018FE4310C004400818FE4308C0044045
:1021B0000C18FE430CC004400C10FE430CB004404D
:1021C0001010FE4310B004401810FE4318B0044035
:1021D0001C10FE431CB004401410FE4314B0044015
:1021E0000418FE4304C004400010FE4300B0044045
:1021F0000008FE4300A004400408FE4304A004407D
:102200000C08FE430CA004400808FE4308A004404C
:102210001418FE4314C004401818FE4318C00440AC
:102220000410FE4304B004400810FE4308B004400C
:102230001400FE43149004404C08FE434CA004409C
:102240000420FE4304D004402410FE4324B0044084
:102250002010FE4320B004402810FE4328B0044064
:102260002C10FE432CB004400020FE4300D004405C
:102270004808FE4348A004401000FE43109004406C
:1022800000151915000100002C87FF1F1200000027
:10229000000200005887FF1F4300000000030000F9
:1022A000B487FF1F00000000010309044087FF1FDF
:1022B00000000000020309049C87FF1F00000000CB
:1022C00003030904B887FF1F00000000000000009E
:1022D0000000000000000000D087FF1FF8B500BF1D
:1022E000F8BC08BC9E4670478520000035040000FD
:0422F000F9040000ED
:0422F400F8B500BF7A
:1022F80008000000FFFFFFFF010A0401120110019E
:1023080002000040C01683047502010203010000A8
:1023180018035400650065006E00730079006400BE
:10232800750069006E006F0009024300020100C0D9
:102338003209040000010202010005240010010511
:102348002401010104240206052406000107058270
:102358000310004009040100020A000000070503F9
:1023680002400000070584024000000016035500E3
:1023780053004200200053006500720069006100AC
:102388006C000000040309040C03000000000000B6
:102398000000000000000000000000000000000035
:1023A80000000000BC8AFF1F248BFF1F8C8BFF1FBF
:1023B8000000000000000000000000000000000015
:1023C8000000000000000000000000000000000005
:1023D80000000000000000000000000000000000F5
:1023E80000000000000000000000000000000000E5
:1023F80000000000000000000000000000000000D5
:1024080000000000000000000000000000000000C4
:1024180000000000000000000000000000000000B4
:1024280000000000000000000000000000000000A4
:102438000000000000000000000000000000000094
:102448000000000000000000010000000000000083
:102458000E33CDAB34126DE6ECDE05000B00000048
:102468000000000000000000000000000000000064
:102478000000000000000000000000000000000054
:102488000000000000000000000000000000000044
:102498000000000000000000000000000000000034
:00000001FF
